:020000040800F2
:1000000000800220D5290008D1290008CF29000846
:10001000CF290008CF290008CF29000800000000E0
:10002000000000000000000000000000D1290008CE
:10003000D129000800000000D1290008112500087E
:10004000CF290008CF290008CF290008CF290008B0
:10005000CF290008CF290008CF290008CF290008A0
:10006000CF290008CF290008CF290008CF29000890
:10007000CF290008CF290008CF290008CF29000880
:10008000CF290008CF290008CF290008CF29000870
:10009000CF290008CF290008CF290008CF29000860
:1000A000CF290008CF290008CF290008CF29000850
:1000B000CF290008CF290008CF290008CF29000840
:1000C000CF290008CF290008CF290008CF29000830
:1000D000CF290008CF29000879250008CF2900087A
:1000E000CF290008CF290008CF290008CF29000810
:1000F000CF290008CF290008CF290008CF29000800
:10010000CF290008CF290008CF290008CF290008EF
:10011000CF290008CF290008CF290008CF290008DF
:10012000CF290008CF290008CF290008CF290008CF
:10013000CF290008CF290008CF290008CF290008BF
:10014000CF290008CF290008CF290008CF290008AF
:10015000CF290008CF290008CF290008CF2900089F
:10016000CF290008CF290008CF290008CF2900088F
:10017000CF290008CF290008CF290008CF2900087F
:10018000CF290008CF290008CF290008CF2900086F
:10019000CF290008CF290008CF290008CF2900085F
:1001A000CF290008CF290008CF29000838B5044618
:1001B000837863F07F0383700388A3B1182B1FD06B
:1001C00008238370002303800325284638BD0423B9
:1001D000A3700325F9E7A37843F00103A370A37884
:1001E00013F0010FF1D120214FF0904002F08AFA74
:1001F00002F088F9A0604FF4FA73E36018232380BB
:10020000A07810F00405E2D1E168A06801F0D0FE0A
:100210000028E0D0A37823F00103A370DFE70000FB
:1002200038B50446837863F07F0383700388332BEB
:1002300000F20482DFE813F0D1000202020202029F
:10024000020202020202020202020202020202028E
:10025000020202020202020202020202020202027E
:10026000020202020202020202020202020202026E
:100270000202020202020202D300F6000D012A016C
:100280000202020202024E0166017E019501AC01EA
:100290000202020202027E009B0002020202BC0075
:1002A0000423A3700325CEE143F00103A370A4E06F
:1002B0000423A3700325C6E1A37843F00103A370D0
:1002C000C0E00423A3700325BDE143F00103A37044
:1002D000CDE00423A3700325B5E1A37843F0010327
:1002E000A370E3E00423A3700325ACE143F0010312
:1002F000A370FDE00423A3700325A4E143F00103F0
:10030000A3700DE10423A37003259CE143F00103D6
:10031000A3701DE10423A370032594E143F00103BE
:10032000A3702CE10423A37003258CE143F00103A7
:10033000A3703BE1A37813F0040540F04C81B34A6D
:10034000126812F0040F40F04A8123F00103A370F9
:10035000A37813F0010F40F07681AC4A136843F0A4
:1003600004031360AA4B00221A8030232380A5784F
:1003700015F0040540F03781A649A54801F0D4FFE7
:10038000022840F23481A37823F00103A370A378FC
:1003900013F0010F40F057819C4A136823F00403C7
:1003A000136002F0AFF8A0606423E360332323807E
:1003B000A57815F0040540F01F81E168A06801F000
:1003C000F7FD002800F01C81A37823F00103A3703F
:1003D000A37813F0010F40F0368120232380A37807
:1003E00013F004057FF45CAF8B4AB2F90020002AB9
:1003F0007FF75AAF23F00103A370A37813F0010F26
:1004000040F02181013A844B1A8002F07BF8A06011
:1004100001F02CFF030F4FF47A7202FB03F3E36049
:1004200021232380A57815F004057FF441AFE1680E
:10043000A06801F0BDFD00283FF43EAFA37823F093
:100440000103A370A37813F0010F40F0FC80222376
:100450002380A37813F004057FF433AF6B4A12684E
:1004600012F0040F7FF431AF23F00103A370A378DF
:1004700013F0010F40F0E780644A136843F004036F
:100480001360634B00221A8023232380A57815F084
:1004900004057FF41EAF61495D4801F045FF022865
:1004A0007FF61BAFA37823F00103A370A37813F0AA
:1004B000010F40F0C880554A136823F0040313600D
:1004C000574A138805331380534A13880133138026
:1004D00027232380A37813F004057FF403AF514A48
:1004E000B2F90020002A7FF701AF23F00103A370C7
:1004F000A37813F0010F40F0A680013A494B1A800F
:1005000028232380A37813F004057FF4F3AE464A32
:10051000B2F90020002A7FF7F1AE23F00103A370A7
:10052000A37813F0010F40F08E80013A3E4B1A8001
:1005300029232380A37813F004057FF4E3AE3B4A1C
:10054000B2F90020002A7FF7E1AE23F00103A37087
:10055000A37813F0010F76D1013A344B1A802A2385
:100560002380A37813F004057FF4D4AE304AB2F9A7
:100570000020002A7FF7D2AE23F00103A370A378F6
:1005800013F0010F5FD1013A294B1A802B232380EE
:10059000A37813F004057FF4C5AE264AB2F9002013
:1005A000002A7FF7C3AE23F00103A370A37813F0F2
:1005B000010F48D1013A1F4B1A801F4A13780133AB
:1005C000DBB21370062B7FF4ECAE134600221A70D8
:1005D0002F232380AEE60423A370032533E043F0EA
:1005E0000103A370B4E60423A37003252BE0A378D2
:1005F00043F00103A370CAE60423A370032522E09D
:10060000A37843F00103A370E2E600BF9018002036
:1006100044190020E82A00082C000020CC2A0008F9
:100620001000002014000020180000201C000020F2
:1006300020000020240000202E00002008238370CA
:10064000002303800325284638BD00BF38B5044683
:10065000837863F07F03837003884F2B00F220823E
:10066000DFE813F0ED001E021E021E021E021E0233
:100670001E021E021E021E021E021E021E021E027A
:100680001E021E021E021E021E021E021E021E026A
:100690001E021E021E021E021E021E021E021E025A
:1006A0001E021E021E021E021E021E021E021E024A
:1006B0001E021E021E021E021E021E021E021E023A
:1006C0001E021E021E021E021E021E021E021E022A
:1006D0001E021E021E021E021E021E02EF00120158
:1006E000290146011E021E021E026A0182019A01B0
:1006F000B101C8011E021E021E029A00B7001E02AE
:100700001E02D8000423A3700325CEE143F00103A9
:10071000A370A4E00423A3700325C6E1A37843F0EB
:100720000103A370C0E00423A3700325BDE143F0DF
:100730000103A370CDE00423A3700325B5E1A378E2
:1007400043F00103A370E3E00423A3700325ACE1AD
:1007500043F00103A370FDE00423A3700325A4E18B
:1007600043F00103A3700DE10423A37003259CE172
:1007700043F00103A3701DE10423A370032594E15A
:1007800043F00103A3702CE10423A37003258CE143
:1007900043F00103A3703BE1A37813F0040540F09C
:1007A0004C81B34A126812F0040F40F04A8123F0E2
:1007B0000103A370A37813F0010F40F07681AC4AD7
:1007C000136843F004031360AA4B00221A804C23E1
:1007D0002380A57815F0040540F03781A649A54887
:1007E00001F0A2FD022840F23481A37823F0010336
:1007F000A370A37813F0010F40F057819C4A13684F
:1008000023F00403136001F07DFEA0606423E36025
:100810004F232380A57815F0040540F01F81E1687F
:10082000A06801F0C5FB002800F01C81A37823F02C
:100830000103A370A37813F0010F40F036813C232D
:100840002380A37813F004057FF45CAF8B4AB2F9E0
:100850000020002A7FF75AAF23F00103A370A3788A
:1008600013F0010F40F02181013A844B1A8001F00E
:1008700049FEA06001F0FAFC030F4FF47A7202FB0C
:1008800003F3E3603D232380A57815F004057FF48E
:1008900041AFE168A06801F08BFB00283FF43EAF58
:1008A000A37823F00103A370A37813F0010F40F0A5
:1008B000FC803E232380A37813F004057FF433AF3C
:1008C0006B4A126812F0040F7FF431AF23F001037A
:1008D000A370A37813F0010F40F0E780644A136817
:1008E00043F004031360634B00221A803F232380EC
:1008F000A57815F004057FF41EAF61495D4801F04D
:1009000013FD02287FF61BAFA37823F00103A37029
:10091000A37813F0010F40F0C880554A136823F004
:1009200004031360574A138805331380534A13880E
:100930000133138043232380A37813F004057FF44D
:1009400003AF514AB2F90020002A7FF701AF23F02C
:100950000103A370A37813F0010F40F0A680013AC1
:10096000494B1A8044232380A37813F004057FF4B5
:10097000F3AE464AB2F90020002A7FF7F1AE23F029
:100980000103A370A37813F0010F40F08E80013AA9
:100990003E4B1A8045232380A37813F004057FF48F
:1009A000E3AE3B4AB2F90020002A7FF7E1AE23F024
:1009B0000103A370A37813F0010F76D1013A344BF1
:1009C0001A8046232380A37813F004057FF4D4AE65
:1009D000304AB2F90020002A7FF7D2AE23F001039B
:1009E000A370A37813F0010F5FD1013A294B1A804D
:1009F00047232380A37813F004057FF4C5AE264A6D
:100A0000B2F90020002A7FF7C3AE23F00103A370E0
:100A1000A37813F0010F48D1013A1F4B1A801F4AE7
:100A200013780133DBB21370062B7FF4ECAE134660
:100A300000221A704B232380AEE60423A370032503
:100A400033E043F00103A370B4E60423A37003254D
:100A50002BE0A37843F00103A370CAE60423A3703C
:100A6000032522E0A37843F00103A370E2E600BF70
:100A70009018002044190020E82A00082C000020CB
:100A8000F42A0008140000201000002018000020A4
:100A90001C00002020000020240000202E00002048
:100AA00008238370002303800325284638BD00BF38
:100AB00038B50446837863F07F0383700388002B86
:100AC00000F0BD806A2B00F2EB81572BC0F0E8816B
:100AD000573B132B00F2E481DFE813F0B300D6009C
:100AE000ED000A01E201E201E2012E0146015E0190
:100AF00075018C01E201E201E2015E007B00E2018E
:100B0000E2019C000423A3700325CEE143F001031E
:100B1000A370A4E00423A3700325C6E1A37843F0E7
:100B20000103A370C0E00423A3700325BDE143F0DB
:100B30000103A370CDE00423A3700325B5E1A378DE
:100B400043F00103A370E3E00423A3700325ACE1A9
:100B500043F00103A370FDE00423A3700325A4E187
:100B600043F00103A3700DE10423A37003259CE16E
:100B700043F00103A3701DE10423A370032594E156
:100B800043F00103A3702CE10423A37003258CE13F
:100B900043F00103A3703BE1A37813F0040540F098
:100BA0004C81B34A126812F0040F40F04A8123F0DE
:100BB0000103A370A37813F0010F40F07681AC4AD3
:100BC000136843F004031360AA4B00221A806723C2
:100BD0002380A57815F0040540F03781A649A54883
:100BE00001F0A2FB022840F23481A37823F0010334
:100BF000A370A37813F0010F40F057819C4A13684B
:100C000023F00403136001F07DFCA0606423E36023
:100C10006A232380A57815F0040540F01F81E16860
:100C2000A06801F0C5F9002800F01C81A37823F02A
:100C30000103A370A37813F0010F40F0368157230E
:100C40002380A37813F004057FF45CAF8B4AB2F9DC
:100C50000020002A7FF75AAF23F00103A370A37886
:100C600013F0010F40F02181013A844B1A8001F00A
:100C700049FCA06001F0FAFA030F4FF47A7202FB0C
:100C800003F3E36058232380A57815F004057FF46F
:100C900041AFE168A06801F08BF900283FF43EAF56
:100CA000A37823F00103A370A37813F0010F40F0A1
:100CB000FC8059232380A37813F004057FF433AF1D
:100CC0006B4A126812F0040F7FF431AF23F0010376
:100CD000A370A37813F0010F40F0E780644A136813
:100CE00043F004031360634B00221A805A232380CD
:100CF000A57815F004057FF41EAF61495D4801F049
:100D000013FB02287FF61BAFA37823F00103A37027
:100D1000A37813F0010F40F0C880554A136823F000
:100D200004031360574A138805331380534A13880A
:100D3000013313805E232380A37813F004057FF42E
:100D400003AF514AB2F90020002A7FF701AF23F028
:100D50000103A370A37813F0010F40F0A680013ABD
:100D6000494B1A805F232380A37813F004057FF496
:100D7000F3AE464AB2F90020002A7FF7F1AE23F025
:100D80000103A370A37813F0010F40F08E80013AA5
:100D90003E4B1A8060232380A37813F004057FF470
:100DA000E3AE3B4AB2F90020002A7FF7E1AE23F020
:100DB0000103A370A37813F0010F76D1013A344BED
:100DC0001A8061232380A37813F004057FF4D4AE46
:100DD000304AB2F90020002A7FF7D2AE23F0010397
:100DE000A370A37813F0010F5FD1013A294B1A8049
:100DF00062232380A37813F004057FF4C5AE264A4E
:100E0000B2F90020002A7FF7C3AE23F00103A370DC
:100E1000A37813F0010F48D1013A1F4B1A801F4AE3
:100E200013780133DBB21370062B7FF4ECAE13465C
:100E300000221A7066232380AEE60423A3700325E4
:100E400033E043F00103A370B4E60423A370032549
:100E50002BE0A37843F00103A370CAE60423A37038
:100E6000032522E0A37843F00103A370E2E600BF6C
:100E70009018002044190020E82A00082C000020C7
:100E8000102B000818000020100000201400002083
:100E90001C00002020000020240000202E00002044
:100EA0000823A370002323800325284638BD00BFF4
:100EB00038B50446837863F07F0383700388002B82
:100EC00000F0BD80852B00F2EB81722BC0F0E88131
:100ED000723B132B00F2E481DFE813F0B300D6007D
:100EE000ED000A01E201E201E2012E0146015E018C
:100EF00075018C01E201E201E2015E007B00E2018A
:100F0000E2019C000423A3700325CEE143F001031A
:100F1000A370A4E00423A3700325C6E1A37843F0E3
:100F20000103A370C0E00423A3700325BDE143F0D7
:100F30000103A370CDE00423A3700325B5E1A378DA
:100F400043F00103A370E3E00423A3700325ACE1A5
:100F500043F00103A370FDE00423A3700325A4E183
:100F600043F00103A3700DE10423A37003259CE16A
:100F700043F00103A3701DE10423A370032594E152
:100F800043F00103A3702CE10423A37003258CE13B
:100F900043F00103A3703BE1A37813F0040540F094
:100FA0004C81B34A126812F0040F40F04A8123F0DA
:100FB0000103A370A37813F0010F40F07681AC4ACF
:100FC000136843F004031360AA4B00221A808223A3
:100FD0002380A57815F0040540F03781A649A5487F
:100FE00001F0A2F9022840F23481A37823F0010332
:100FF000A370A37813F0010F40F057819C4A136847
:1010000023F00403136001F07DFAA0606423E36021
:1010100085232380A57815F0040540F01F81E16841
:10102000A06800F0C5FF002800F01C81A37823F021
:101030000103A370A37813F0010F40F036817223EF
:101040002380A37813F004057FF45CAF8B4AB2F9D8
:101050000020002A7FF75AAF23F00103A370A37882
:1010600013F0010F40F02181013A844B1A8001F006
:1010700049FAA06001F0FAF8030F4FF47A7202FB0C
:1010800003F3E36073232380A57815F004057FF450
:1010900041AFE168A06800F08BFF00283FF43EAF4D
:1010A000A37823F00103A370A37813F0010F40F09D
:1010B000FC8074232380A37813F004057FF433AFFE
:1010C0006B4A126812F0040F7FF431AF23F0010372
:1010D000A370A37813F0010F40F0E780644A13680F
:1010E00043F004031360634B00221A8075232380AE
:1010F000A57815F004057FF41EAF61495D4801F045
:1011000013F902287FF61BAFA37823F00103A37025
:10111000A37813F0010F40F0C880554A136823F0FC
:1011200004031360574A138805331380534A138806
:101130000133138079232380A37813F004057FF40F
:1011400003AF514AB2F90020002A7FF701AF23F024
:101150000103A370A37813F0010F40F0A680013AB9
:10116000494B1A807A232380A37813F004057FF477
:10117000F3AE464AB2F90020002A7FF7F1AE23F021
:101180000103A370A37813F0010F40F08E80013AA1
:101190003E4B1A807B232380A37813F004057FF451
:1011A000E3AE3B4AB2F90020002A7FF7E1AE23F01C
:1011B0000103A370A37813F0010F76D1013A344BE9
:1011C0001A807C232380A37813F004057FF4D4AE27
:1011D000304AB2F90020002A7FF7D2AE23F0010393
:1011E000A370A37813F0010F5FD1013A294B1A8045
:1011F0007D232380A37813F004057FF4C5AE264A2F
:10120000B2F90020002A7FF7C3AE23F00103A370D8
:10121000A37813F0010F48D1013A1F4B1A801F4ADF
:1012200013780133DBB21370062B7FF4ECAE134658
:1012300000221A7081232380AEE60423A3700325C5
:1012400033E043F00103A370B4E60423A370032545
:101250002BE0A37843F00103A370CAE60423A37034
:10126000032522E0A37843F00103A370E2E600BF68
:101270009018002044190020E82A00082C000020C3
:101280002C2B00081C00002010000020140000205F
:101290001800002020000020240000202E00002044
:1012A0000823A370002323800325284638BD00BFF0
:1012B00038B50446837863F07F0383700388002B7E
:1012C00000F0BD80A02B00F2EB818D2BC0F0E881F7
:1012D0008D3B132B00F2E481DFE813F0B300D6005E
:1012E000ED000A01E201E201E2012E0146015E0188
:1012F00075018C01E201E201E2015E007B00E20186
:10130000E2019C000423A3700325CEE143F0010316
:10131000A370A4E00423A3700325C6E1A37843F0DF
:101320000103A370C0E00423A3700325BDE143F0D3
:101330000103A370CDE00423A3700325B5E1A378D6
:1013400043F00103A370E3E00423A3700325ACE1A1
:1013500043F00103A370FDE00423A3700325A4E17F
:1013600043F00103A3700DE10423A37003259CE166
:1013700043F00103A3701DE10423A370032594E14E
:1013800043F00103A3702CE10423A37003258CE137
:1013900043F00103A3703BE1A37813F0040540F090
:1013A0004C81B34A126812F0040F40F04A8123F0D6
:1013B0000103A370A37813F0010F40F07681AC4ACB
:1013C000136843F004031360AA4B00221A809D2384
:1013D0002380A57815F0040540F03781A649A5487B
:1013E00000F0A2FF022840F23481A37823F0010329
:1013F000A370A37813F0010F40F057819C4A136843
:1014000023F00403136001F07DF8A0606423E3601F
:10141000A0232380A57815F0040540F01F81E16822
:10142000A06800F0C5FD002800F01C81A37823F01F
:101430000103A370A37813F0010F40F036818D23D0
:101440002380A37813F004057FF45CAF8B4AB2F9D4
:101450000020002A7FF75AAF23F00103A370A3787E
:1014600013F0010F40F02181013A844B1A8001F002
:1014700049F8A06000F0FAFE030F4FF47A7202FB05
:1014800003F3E3608E232380A57815F004057FF431
:1014900041AFE168A06800F08BFD00283FF43EAF4B
:1014A000A37823F00103A370A37813F0010F40F099
:1014B000FC808F232380A37813F004057FF433AFDF
:1014C0006B4A126812F0040F7FF431AF23F001036E
:1014D000A370A37813F0010F40F0E780644A13680B
:1014E00043F004031360634B00221A80902323808F
:1014F000A57815F004057FF41EAF61495D4800F042
:1015000013FF02287FF61BAFA37823F00103A3701B
:10151000A37813F0010F40F0C880554A136823F0F8
:1015200004031360574A138805331380534A138802
:101530000133138094232380A37813F004057FF4F0
:1015400003AF514AB2F90020002A7FF701AF23F020
:101550000103A370A37813F0010F40F0A680013AB5
:10156000494B1A8095232380A37813F004057FF458
:10157000F3AE464AB2F90020002A7FF7F1AE23F01D
:101580000103A370A37813F0010F40F08E80013A9D
:101590003E4B1A8096232380A37813F004057FF432
:1015A000E3AE3B4AB2F90020002A7FF7E1AE23F018
:1015B0000103A370A37813F0010F76D1013A344BE5
:1015C0001A8097232380A37813F004057FF4D4AE08
:1015D000304AB2F90020002A7FF7D2AE23F001038F
:1015E000A370A37813F0010F5FD1013A294B1A8041
:1015F00098232380A37813F004057FF4C5AE264A10
:10160000B2F90020002A7FF7C3AE23F00103A370D4
:10161000A37813F0010F48D1013A1F4B1A801F4ADB
:1016200013780133DBB21370062B7FF4ECAE134654
:1016300000221A709C232380AEE60423A3700325A6
:1016400033E043F00103A370B4E60423A370032541
:101650002BE0A37843F00103A370CAE60423A37030
:10166000032522E0A37843F00103A370E2E600BF64
:101670009018002044190020E82A00082C000020BF
:10168000482B00082000002010000020140000203B
:10169000180000201C000020240000202E00002044
:1016A0000823A370002323800325284638BD00BFEC
:1016B00038B50446837863F07F0383700388002B7A
:1016C00000F0BD80BB2B00F2EB81A82BC0F0E881BD
:1016D000A83B132B00F2E481DFE813F0B300D6003F
:1016E000ED000A01E201E201E2012E0146015E0184
:1016F00075018C01E201E201E2015E007B00E20182
:10170000E2019C000423A3700325CEE143F0010312
:10171000A370A4E00423A3700325C6E1A37843F0DB
:101720000103A370C0E00423A3700325BDE143F0CF
:101730000103A370CDE00423A3700325B5E1A378D2
:1017400043F00103A370E3E00423A3700325ACE19D
:1017500043F00103A370FDE00423A3700325A4E17B
:1017600043F00103A3700DE10423A37003259CE162
:1017700043F00103A3701DE10423A370032594E14A
:1017800043F00103A3702CE10423A37003258CE133
:1017900043F00103A3703BE1A37813F0040540F08C
:1017A0004C81B34A126812F0040F40F04A8123F0D2
:1017B0000103A370A37813F0010F40F07681AC4AC7
:1017C000136843F004031360AA4B00221A80B82365
:1017D0002380A57815F0040540F03781A649A54877
:1017E00000F0A2FD022840F23481A37823F0010327
:1017F000A370A37813F0010F40F057819C4A13683F
:1018000023F00403136000F07DFEA0606423E36016
:10181000BB232380A57815F0040540F01F81E16803
:10182000A06800F0C5FB002800F01C81A37823F01D
:101830000103A370A37813F0010F40F03681A823B1
:101840002380A37813F004057FF45CAF8B4AB2F9D0
:101850000020002A7FF75AAF23F00103A370A3787A
:1018600013F0010F40F02181013A844B1A8000F0FF
:1018700049FEA06000F0FAFC030F4FF47A7202FBFD
:1018800003F3E360A9232380A57815F004057FF412
:1018900041AFE168A06800F08BFB00283FF43EAF49
:1018A000A37823F00103A370A37813F0010F40F095
:1018B000FC80AA232380A37813F004057FF433AFC0
:1018C0006B4A126812F0040F7FF431AF23F001036A
:1018D000A370A37813F0010F40F0E780644A136807
:1018E00043F004031360634B00221A80AB23238070
:1018F000A57815F004057FF41EAF61495D4800F03E
:1019000013FD02287FF61BAFA37823F00103A37019
:10191000A37813F0010F40F0C880554A136823F0F4
:1019200004031360574A138805331380534A1388FE
:1019300001331380AF232380A37813F004057FF4D1
:1019400003AF514AB2F90020002A7FF701AF23F01C
:101950000103A370A37813F0010F40F0A680013AB1
:10196000494B1A80B0232380A37813F004057FF439
:10197000F3AE464AB2F90020002A7FF7F1AE23F019
:101980000103A370A37813F0010F40F08E80013A99
:101990003E4B1A80B1232380A37813F004057FF413
:1019A000E3AE3B4AB2F90020002A7FF7E1AE23F014
:1019B0000103A370A37813F0010F76D1013A344BE1
:1019C0001A80B2232380A37813F004057FF4D4AEE9
:1019D000304AB2F90020002A7FF7D2AE23F001038B
:1019E000A370A37813F0010F5FD1013A294B1A803D
:1019F000B3232380A37813F004057FF4C5AE264AF1
:101A0000B2F90020002A7FF7C3AE23F00103A370D0
:101A1000A37813F0010F48D1013A1F4B1A801F4AD7
:101A200013780133DBB21370062B7FF4ECAE134650
:101A300000221A70B7232380AEE60423A370032587
:101A400033E043F00103A370B4E60423A37003253D
:101A50002BE0A37843F00103A370CAE60423A3702C
:101A6000032522E0A37843F00103A370E2E600BF60
:101A70009018002044190020E82A00082C000020BB
:101A8000642B000824000020100000201400002017
:101A9000180000201C000020200000202E00002044
:101AA0000823A370002323800325284638BD00BFE8
:101AB000837863F07F03837003882BB9054B19701B
:101AC000054B1A8811441980082383700023038072
:101AD00003207047000000202C00002038B5044689
:101AE000827842F0800282700388E3B1E02B00F23A
:101AF000F580D02BC0F0F280D03B102B00F2EE80AE
:101B0000DFE813F013002C00EC00490063007D00B7
:101B10009700EC00B600EC00EC00EC00EC00EC00F0
:101B2000EC00EC00D800D023038012F0040540F054
:101B3000DC80934B1B6813F0040F40F0DA8022F036
:101B40000102A270A37813F0010F40F0CC808C4A00
:101B5000136843F004031360D1232380A37813F0A8
:101B6000040540F0CA80864A126812F0080F40F05F
:101B7000C88023F00103A370A37813F0010F40F095
:101B8000B2807F4A136843F0080313607D4B002244
:101B90001A80D3232380A57815F0040540F0B58082
:101BA0007949784800F0C0FB022840F2B280A3785F
:101BB00023F00103A370A37813F0010F40F093808A
:101BC000724B00221A80D4232380A57815F00405D7
:101BD00040F0A48001226E496C4800F0E7FB022827
:101BE00040F2A080A37823F00103A370A37813F040
:101BF000010F78D1634B00221A80D5232380A5786A
:101C000015F0040540F09380614B19785D4800F0B1
:101C100051FB022840F28F80A37823F00103A370C8
:101C2000A37813F0010F5ED1564B00221A80D62301
:101C30002380A57815F0040540F08280554951486D
:101C400000F072FB02287FD9A37823F00103A37070
:101C5000A37813F0010F46D14D4B1A78A2F131034E
:101C6000DBB2052B7ED9474B00221A80D823238074
:101C7000A57815F004056CD14749424800F054FBA3
:101C800002286AD9A37823F00103A370A37813F084
:101C9000010F28D13A4A136823F00401116023F0A0
:101CA0000C03136000F06EF93C4B186000230380B6
:101CB000E0232380A57815F0040557D1344B19781B
:101CC000364B1868FFF7F4FE022853D9A37823F0A7
:101CD0000103A370A37813F0010F04D10823A370AC
:101CE000002323800325284638BD0423A370032541
:101CF000F9E742F00102A27024E70423A370032550
:101D0000F1E743F00103A37036E70423A370032532
:101D1000E9E7A37843F00103A3704CE70423A37021
:101D20000325E0E7A37843F00103A3705EE70423F3
:101D3000A3700325D7E7A37843F00103A3706FE7EF
:101D40000423A3700325CEE7A37843F00103A37017
:101D50007EE70423A3700325C5E7A37843F00103BE
:101D6000A37093E7303A0A4B1A7093E70423A370E9
:101D70000325B8E7A37843F00103A370AAE700BFE7
:101D80009018002044190020802B00082C190020F6
:101D900001000020E42A0008B02B000828000020E1
:101DA00008B5002000F098FD2023012211464FF0D5
:101DB000904000F0B0FC08BD0023074A1380074A9A
:101DC0001380074A1380074A1380074A1380074A83
:101DD0001380074A138070472C0000201000002059
:101DE00014000020180000201C000020200000200B
:101DF0002400002008B5FFF7D3FFFFF7DDFF0C48F4
:101E000000F026F80B4800F023F80B4800F020F80B
:101E10000A4800F01DF80A4800F01AF8094800F0D6
:101E200017F8094800F014F8084800F011F808BD48
:101E3000AD010008DD1A0008210200084D06000867
:101E4000B10A0008B10E0008B1120008B11600086E
:101E500030B5334B1D781F2D03D80024A6462346EA
:101E600003E000203AE00133DBB21F2B37D803EB4D
:101E700043022C4901EBC2025268824206D0002C78
:101E8000F1D1002AEFD19E460124ECE7254A03EB6D
:101E90004301CC0002EBC101002010538870496956
:101EA0000968888020494B5501351D490D700EEB9E
:101EB0004E0102EBC102128A5AB91C490A8801324A
:101EC00092B20A800EEB4E0E164901EBCE0EAEF822
:101ED000102003EB4303134800EBC30030BDE4B113
:101EE000104B0EEB4E02D40003EBC20250600021F7
:101EF000195391705069006881800B4901F805E021
:101F0000013507490D7009480188013189B2018006
:101F100011820EEB4E0E1046E0E70020DEE700BF18
:101F20009D18002070060020700900209A180020DB
:101F3000002301E00133DBB20E4A12789A4217D92E
:101F40009C460D4AD25CFD2AF4D802EB42020B49B2
:101F500001EBC20252688242ECD1074BFE2203F829
:101F60000C20074A136843F00103136001207047F7
:101F7000002070479D180020700900207006002086
:101F80009018002000231F2B0ED803EB4301CA003A
:101F900006498A5A12B101339BB2F4E703EB4300BE
:101FA000C3000846184470470020704730000020E6
:101FB00038B504460D4600F0A5FA031BA04200D236
:101FC000013BAB4201D9012038BD0020FCE70000F5
:101FD00038B5134B1D78002403E0013DEDB2013408
:101FE000E4B2E5B10123A3400E4909680B42F6D0E3
:101FF00004EB44018B000C4919448B68013B8B6056
:10200000002BEAD1084904EB440083000B445868D4
:10201000986004EB44029300CB589847DDE738BD45
:102020009818002094180020B005002010B5002456
:1020300023E004EB4403DA00214B134400215960F0
:10204000204AFF20105504EB4402D0001E4A0244EF
:1020500051601E4A02EBC400586104EB440399002E
:102060001B4B0B4442F83430C4EB0412D300194923
:10207000194400F0E7F90134E4B21F2CD9D9002348
:10208000154A13600F2B08D803EB43018A0013494C
:10209000002088500133DBB2F4E70023104A1370AC
:1020A000104A1370104A1370202000F0B5F800F0A9
:1020B0003DFA00F0CDF900F0DDF8FFF79BFE10BD12
:1020C000700600207009002030000020B0040020BD
:1020D000300300209009002094180020B005002053
:1020E0009D1800209C1800209818002070B5FFF75C
:1020F0009DFF234B00221A801CE00134E4B2B4425D
:1021000013D2204B1D5D05EB45031F4800EBC300B8
:10211000436898470328F0D105EB45051A4B03EBBC
:10212000C5056868FFF704FFE7E7184B1B6813F065
:10213000010F03D1164B1E780024E0E7144A1178F2
:10214000104A525CFE2A03D099B10139C9B2F7E7AF
:102150004A1CD2B205E0541E0A48855C055501327E
:10216000D2B2B242F7D3013E064AFF209055F6B2F2
:10217000EAE7074A167023F00103044A1360D9E71F
:102180009A18002070090020700600209018002086
:102190009D18002000234380838002808160704767
:1021A0008388B0F800C063450BD24288134493FB88
:1021B000FCF20CFB123382689BB2D154838801334A
:1021C00083807047438882881344028893FBF2FC23
:1021D00002FB1C3382689BB2D154838802889342ED
:1021E00002D00133838070474388013393FBF2F1BF
:1021F00002FB113343807047034681684288885C44
:102200000132198892FBF1FC01FB1C225A809A884A
:10221000013A9A8070470000014B1860704700BF78
:10222000A01800200F4B1B6803EB8300C0EB0010CD
:1022300003EB4010C0EBC000C0EB00401B0C44F2AD
:10224000A71203FB02F2084B03EA0243184410EB07
:10225000D23002D4034B1860704700F100400130C7
:10226000F8E700BFA01800200000FF7F08B500F0CD
:1022700059F908BD10B5094C094B236009480A4BB0
:10228000186040220949FFF785FF4022084920686D
:10229000FFF780FF00F00EFA10BD00BF24190020E8
:1022A0005C1900206819002028190020E41800207B
:1022B000A418002010B50446837843F0800383708F
:1022C00002883AB1542A09D00823A370002323803E
:1022D000032010BD124A11705422028013F0040032
:1022E00015D1104A126811889288914213D023F0B8
:1022F0000103A370A37813F0010FEAD1084B1978FA
:10230000084B1868FFF74CFF00F014F9DCE70423D2
:10231000A3700320DDE743F00103A370EAE700BFE9
:102320007E1900202819002010B50446837863F038
:102330007F03837003883BB1BF2B0ED00823A370AB
:1023400000232380032010BD164B1960154B1B681A
:102350001B78002BF2D0BF232380A37813F0040056
:1023600018D1114A126811889288914216D023F030
:102370000103A370A37813F0010FE4D1094A136895
:10238000591C11601978084B1868FFF709FF00F015
:10239000D1F8DBE70423A3700320D4E743F0010363
:1023A000A370E7E77819002028190020F8B5044643
:1023B000837863F07F03837003883BB1D72B14D0FD
:1023C0000823A370002323800320F8BD194B1A7043
:1023D000194B1960194B00221A70184B1A78154BBB
:1023E0001B789A42ECD2D7232380A37813F0040001
:1023F00017D1134A12689288BAB123F00103A3706F
:10240000A37813F0010FE0D10C4D2E780A4B1F6812
:102410000B4B1868FFF7F0FEB8552B7801332B7083
:10242000DBE70423A3700320CFE743F00103A3708D
:10243000E6E700BF7C190020741900207D190020F8
:102440002419002008B578220068FFF7A3FE08BD14
:1024500010B582B0042000F013FB244800F00AFB02
:1024600000F01FFB00F016FB022000F0DFF900F087
:1024700027F9042000F02CF900F034F900F03AF9C3
:10248000002401940094234628220421022000F015
:102490000FFA204600F0CAF94FF4186000F01CFA59
:1024A00040F6811000F018FA40F6821000F014FA9D
:1024B00040F6831000F010FA40F6841000F00CFA99
:1024C0004FF4406000F008FA032000F0E7F92046DE
:1024D00000F088F9064B074A1360074A1360074A61
:1024E0001360074B1C6002B010BD00BF80380100B4
:1024F00000B4C40404000020080000200C000020E8
:1025000080190020014B1868704700BF8019002017
:1025100008B5034A136801331360FFF759FD08BD7E
:102520008019002008B5FFF77DFE08BD08B500F052
:10253000E1F908BD0C4B1B6813F0100F00D0704779
:1025400010B543F01003084A1360084B1868FFF7F2
:1025500053FE0146064B1870064C204600F02FFA39
:10256000204600F022FA10BD901800202819002003
:10257000851900200044004010B54FF04023D3F8E7
:10258000003413F0200F06D04FF04023D3F81C3452
:1025900013F0200F1AD14FF04023D3F8003413F07A
:1025A000800F1DD04FF04023D3F81C3413F0800F60
:1025B00016D0124B186883889BB9114800F0FAF9BD
:1025C000104A136823F01003136009E00C4800F070
:1025D000FAF9C1B20C4B19700C4B1868FFF7F2FDF9
:1025E00010BDFFF709FE0146094B1870044C204648
:1025F00000F0E5F9204600F0D8F9F1E728190020AD
:102600000044004090180020841900202419002064
:102610008519002038B50546262000F049FA40F615
:10262000113000F059F90423002202214FF09040AC
:1026300000F071F80823002202214FF0904000F0D2
:102640006AF80823012211464FF0904000F083F809
:10265000042207214FF0904000F098F8082207214B
:102660004FF0904000F092F8114C2946204600F0BF
:102670004BF90821204600F06DF90021204600F0BA
:1026800072F90C21204600F07AF90021204600F072
:1026900070F90021204600F078F9204600F08AF910
:1026A000204600F07DF9204600F075F938BD00BFE6
:1026B0000044004008B54FF46140FFF7ABFF08BD90
:1026C000024A136843F4807313607047002002408D
:1026D000034A136823F0070318431060704700BFD4
:1026E00000200240024A136843F48063136070477D
:1026F00000200240024A136843F4007313607047DD
:1027000000200240436901EA030221EA030141EA91
:102710000241816170472DE9F0410568C4680026D7
:102720004FF0030E43FA06F7FF070DD577000EFAB8
:1027300007FC01FA07F825EA0C0524EA0C0402FA62
:1027400007F748EA05053C430136102EEAD105603B
:10275000C460BDE8F081012941680CBF1943994369
:10276000F0B5416081680024032643FA04F5ED07C3
:1027700007D5650006FA05F721EA070102FA05F513
:1027800029430134102CF0D18160F0BDF0B5076A07
:10279000466A00234FF00F0C42FA03F4E50707D511
:1027A0009D000CFA05F427EA040701FA05F52F430A
:1027B0000133082BF0D100234FF00F0C03F1080474
:1027C00042FA04F4E40707D59C000CFA04F526EA63
:1027D000050601FA04F426430133082BEED1076203
:1027E0004662F0BD032808D8DFE800F0160F0802A3
:1027F0000D4A936813F00C0FFBD170470A4A936897
:10280000C3F38103012BFAD17047074A9368C3F3DE
:102810008103022BFAD17047034A9368C3F3810303
:10282000032BFAD1704700BF00100240062831D8B0
:10283000DFE800F0040A0F1419212900164A136872
:1028400043F0807313607047134A136843F4803376
:10285000F8E7114A136843F48073F3E70E4A1368EC
:1028600043F00103EEE70C4AD2F8903043F0010345
:10287000C2F890307047084AD2F8943043F0010310
:10288000C2F894307047044AD2F8983043F00103FC
:10289000C2F89830704700BF00100240034A9368A6
:1028A00023F0030318439060704700BF00100240FC
:1028B00010B5039C0139640644EA01142043029CCC
:1028C00040EA4450034343EA0222024B42F0807242
:1028D000DA6010BD00100240430903F1804303F5A4
:1028E000043300F01F001968012202FA00F00843C7
:1028F00018607047034AD2F8003843F00403C2F866
:1029000000387047000006500E4A904210B54FEA5A
:10291000510306D10C4A12681A44B2FBF1F2C260AC
:102920000FE00A4C0A4AA0421268F5D1B2FBF1F45A
:1029300001FB142203EB0222B2FBF1F303EB0423AD
:10294000C36010BD003801400C0000200080004032
:1029500008000020036808290CBF23F4805343F4C7
:10296000805303607047436823F440531943416028
:102970007047036823F4C06319430160704703681C
:1029800023F00C03194301607047836823F44073FC
:10299000194381607047036843F001030360704787
:1029A000036843F0200303607047036843F080032B
:1029B00003607047036823F0800303607047C1F32E
:1029C000080181627047406AC0F308007047FEE763
:1029D0007047000038B51D4A1D4B1E498B4220D35D
:1029E0001D4A0021934221D34FF0E0231B4CD3F822
:1029F000142D1B4D42F40072C3F8142DD3F8882D0A
:102A000042F47002C3F8882DAC4212D3154C164D17
:102A1000AC4212D3FFF76AFB144C154DAC4210D3F5
:102A200038BD52F8040B43F8040BD7E743F8041BF6
:102A3000D8E754F8043B9847E6E754F8043B984736
:102A4000E6E754F8043B9847E8E700BFD42B0008BA
:102A5000000000201000002088190020D42B00085E
:102A6000D42B0008D42B0008D42B0008D42B00084A
:102A7000D42B00084FF0E02320F07F4058617047CE
:102A80004FF0E02200F00400136923F00403034335
:102A9000136170474FF0E022136943F002031361A2
:102AA00070474FF0E022136943F001031361704750
:102AB000054B420903EB820300F01F00012202FADA
:102AC00000F01860704700BF00E100E0436F6E73D4
:102AD000756D657220312066696E69736865642062
:102AE0007461736B0A0D00004E6577204379636C47
:102AF000650A0D00436F6E73756D65722032206636
:102B0000696E6973686564207461736B0A0D0000F7
:102B1000436F6E73756D657220332066696E6973DD
:102B2000686564207461736B0A0D0000436F6E73F7
:102B3000756D657220342066696E697368656420FE
:102B40007461736B0A0D0000436F6E73756D65726F
:102B500020352066696E6973686564207461736BE3
:102B60000A0D0000436F6E73756D65722036206626
:102B7000696E6973686564207461736B0A0D000087
:102B8000506C6561736520656E746572207468654C
:102B9000206D6178206E756D626572206F662054BD
:102BA0006872656164732028312D36293A2000004F
:102BB000496E76616C6964206E756D6265722C2059
:102BC00064656661756C74696E6720746F20330A82
:042BD0000D000000F4
:102BD4000303000000093D0000093D0000093D0019
:04000005080029D5F1
:00000001FF
