:020000040800F2
:10000000008002202D0F0008290F0008270F00088C
:10001000270F0008270F0008270F00080000000026
:10002000000000000000000000000000290F000890
:10003000290F000800000000290F0008710A0008BD
:10004000270F0008270F0008270F0008270F0008B8
:10005000270F0008270F0008270F0008270F0008A8
:10006000270F0008270F0008270F0008270F000898
:10007000270F0008270F0008270F0008270F000888
:10008000270F0008270F0008270F0008270F000878
:10009000270F0008270F0008270F0008270F000868
:1000A000270F0008270F0008270F0008270F000858
:1000B000270F0008270F0008270F0008270F000848
:1000C000270F0008270F0008270F0008270F000838
:1000D000270F0008270F0008D10A0008270F000883
:1000E000270F0008270F0008270F0008270F000818
:1000F000270F0008270F0008270F0008270F000808
:10010000270F0008270F0008270F0008270F0008F7
:10011000270F0008270F0008270F0008270F0008E7
:10012000270F0008270F0008270F0008270F0008D7
:10013000270F0008270F0008270F0008270F0008C7
:10014000270F0008270F0008270F0008270F0008B7
:10015000270F0008270F0008270F0008270F0008A7
:10016000270F0008270F0008270F0008270F000897
:10017000270F0008270F0008270F0008270F000887
:10018000270F0008270F0008270F0008270F000877
:10019000270F0008270F0008270F0008270F000867
:1001A000270F0008270F0008270F000838B504465E
:1001B000837863F07F0383700388A3B1232B1FD060
:1001C00008238370002303800325284638BD0423B9
:1001D000A3700325F9E7A37843F00103A370A37884
:1001E00013F0010FF1D120214FF0904000F036FDC7
:1001F00000F038FCA0604FF4FA73E36023232380FF
:10020000A07810F00405E2D1E168A06800F02EFAB1
:100210000028E0D0A37823F00103A370DFE70000FB
:1002200038B50446837863F07F03837003889BB3FB
:10023000302B00F294802C2BC0F091802C3B042BAF
:1002400000F28D80DFE803F02E435D8B7C000423F9
:10025000A370032588E043F00103A3702EE004237C
:10026000A370032580E043F00103A3703BE0042367
:10027000A370032578E0A37843F00103A3704EE058
:100280000423A37003256FE0A37843F00103A37058
:10029000A37813F0010F67D1344A13880133138018
:1002A0002C232380A37813F00405D0D1304AB2F96F
:1002B0000020002ACFDD23F00103A370A37813F000
:1002C000010F51D1013A2A4B1A802D232380A378A4
:1002D00013F00405C3D1274A126812F0040FC2D1EB
:1002E00023F00103A370A37813F0010F3CD1214A3E
:1002F000136843F0040313601F4B00221A802E235F
:100300002380A57815F00405B1D11C491A4800F0E6
:1003100007FB0228AFD9A37823F00103A370A378C9
:1003200013F0010F20D1134A136823F00403136064
:1003300000F098FBA0604FF47A73E36030232380D1
:10034000A57815F004059BD1E168A06800F08EF94E
:10035000002899D0A37823F00103A37098E708231D
:10036000A370002323800325284638BD0C000020FD
:10037000100000207418002010190020241000081C
:1003800038B50446837863F07F03837003889BB39A
:100390003D2B00F29480392BC0F09180393B042B27
:1003A00000F28D80DFE803F02E435D8B7C00042398
:1003B000A370032588E043F00103A3702EE004231B
:1003C000A370032580E043F00103A3703BE0042306
:1003D000A370032578E0A37843F00103A3704EE0F7
:1003E0000423A37003256FE0A37843F00103A370F7
:1003F000A37813F0010F67D1344A138801331380B7
:1004000039232380A37813F00405D0D1304AB2F900
:100410000020002ACFDD23F00103A370A37813F09E
:10042000010F51D1013A2A4B1A803A232380A37835
:1004300013F00405C3D1274A126812F0040FC2D189
:1004400023F00103A370A37813F0010F3CD1214ADC
:10045000136843F0040313601F4B00221A803B23F0
:100460002380A57815F00405B1D11C491A4800F085
:1004700057FA0228AFD9A37823F00103A370A37819
:1004800013F0010F20D1134A136823F00403136003
:1004900000F0E8FAA0604FF47A73E3603D23238014
:1004A000A57815F004059BD1E168A06800F0DEF89E
:1004B000002899D0A37823F00103A37098E70823BC
:1004C000A370002323800325284638BD1000002098
:1004D0000C000020741800201019002034100008AF
:1004E00008B5002000F0A4FC2023012211464FF0A3
:1004F000904000F0BCFB08BD0023024A1380024A72
:10050000138070470C0000201000002008B5FFF792
:10051000E7FFFFF7F1FF054800F00EF8044800F090
:100520000BF8044800F008F808BD00BFAD01000852
:10053000210200088103000830B5334B1D781F2DC0
:1005400003D80024A646234603E000203AE0013306
:10055000DBB21F2B37D803EB43022C4901EBC2025D
:100560005268824206D0002CF1D1002AEFD19E467B
:100570000124ECE7254A03EB4301CC0002EBC10167
:1005800000201053887049690968888020494B55BC
:1005900001351D490D700EEB4E0102EBC102128AAE
:1005A0005AB91C490A88013292B20A800EEB4E0EEB
:1005B000164901EBCE0EAEF8102003EB43031348AF
:1005C00000EBC30030BDE4B1104B0EEB4E02D40083
:1005D00003EBC2025060002119539170506900680A
:1005E00081800B4901F805E0013507490D70094884
:1005F0000188013189B2018011820EEB4E0E104646
:10060000E0E70020DEE700BF81180020540600204C
:10061000540900207E180020002301E00133DBB2E2
:100620000E4A12789A4217D99C460D4AD25CFD2A8E
:10063000F4D802EB42020B4901EBC202526882423B
:10064000ECD1074BFE2203F80C20074A136843F055
:1006500001031360012070470020704781180020BB
:1006600054090020540600207418002038B50446B0
:100670000D4600F0F7F9031BA04200D2013BAB424C
:1006800001D9012038BD0020FCE7000038B5134B2C
:100690001D78002403E0013DEDB20134E4B2E5B180
:1006A0000123A3400E4909680B42F6D004EB440134
:1006B0008B000C4919448B68013B8B60002BEAD1FD
:1006C000084904EB440083000B445868986004EB2D
:1006D00044029300CB589847DDE738BD7C180020D2
:1006E000781800209405002010B5002423E004EBC6
:1006F0004403DA00214B134400215960204AFF20B3
:10070000105504EB4402D0001E4A024451601E4AB8
:1007100002EBC400586104EB440399001B4B0B44EB
:1007200042F83430C4EB0412D3001949194400F0E4
:1007300039F90134E4B21F2CD9D90023154A1360CA
:100740000F2B08D803EB43018A001349002088507F
:100750000133DBB2F4E70023104A1370104A137020
:10076000104A1370202000F0B5F800F08BF900F06B
:100770001FF900F0B5F8FFF7C9FE10BD54060020C0
:1007800054090020140000209404002014030020C9
:10079000740900207818002094050020811800209A
:1007A000801800207C18002070B5FFF79DFF234BB8
:1007B00000221A801CE00134E4B2B44213D2204B70
:1007C0001D5D05EB45031F4800EBC30043689847D8
:1007D0000328F0D105EB45051A4B03EBC505686806
:1007E000FFF71AFFE7E7184B1B6813F0010F03D15F
:1007F000164B1E780024E0E7144A1178104A525C28
:10080000FE2A03D099B10139C9B2F7E74A1CD2B226
:1008100005E0541E0A48855C05550132D2B2B24249
:10082000F7D3013E064AFF209055F6B2EAE7074AA1
:10083000167023F00103044A1360D9E77E180020E4
:10084000540900205406002074180020811800204C
:100850000023438083800280816070478388B0F8E2
:1008600000C063450BD24288134493FBFCF20CFB9F
:10087000123382689BB2D1548388013383807047DE
:10088000438882881344028893FBF2FC02FB1C33EA
:1008900082689BB2D15483880288934202D001338C
:1008A000838070474388013393FBF2F102FB1133DD
:1008B00043807047034681684288885C013219880A
:1008C00092FBF1FC01FB1C225A809A88013A9A8023
:1008D00070470000014B1860704700BF841800206B
:1008E00010B5094C094B236009480A4B1860402297
:1008F0000949FFF7ADFF402208492068FFF7A8FF2C
:1009000000F084F910BD00BF08190020281900204C
:10091000341900200C190020C81800208818002065
:1009200010B50446837863F07F03837003883BB17E
:10093000BF2B0ED00823A37000232380032010BDFB
:10094000164B1960154B1B681B78002BF2D0BF2388
:100950002380A37813F0040018D1114A126811887B
:100960009288914216D023F00103A370A37813F06C
:10097000010FE4D1094A1368591C11601978084B1A
:100980001868FFF76BFF00F081F8DBE70423A37022
:100990000320D4E743F00103A370E7E740190020E8
:1009A0000C19002008B578220068FFF751FF08BD38
:1009B00010B582B0042000F00FFB244800F006FBC5
:1009C00000F01BFB00F012FB022000F0DBF900F04E
:1009D00023F9042000F028F900F030F900F036F98E
:1009E000002401940094234628220421022000F0D0
:1009F0000BFA204600F0C6F94FF4186000F018FA20
:100A000040F6811000F014FA40F6821000F010FA5F
:100A100040F6831000F00CFA40F6841000F008FA5B
:100A20004FF4406000F004FA032000F0E3F92046A0
:100A300000F084F9064B074A1360074A1360074A1F
:100A40001360074B1C6002B010BD00BF803801006E
:100A500000B4C404000000200400002008000020AE
:100A600044190020014B1868704700BF441900204A
:100A700008B5034A136801331360FFF707FE08BD8A
:100A80004419002008B500F0E1F908BD0C4B1B68C3
:100A900013F0100F00D0704710B543F01003084A50
:100AA0001360084B1868FFF705FF0146064B1870E6
:100AB000064C204600F02FFA204600F022FA10BD26
:100AC000741800200C19002049190020004400402F
:100AD00010B54FF04023D3F8003413F0200F06D0A8
:100AE0004FF04023D3F81C3413F0200F1AD14FF0ED
:100AF0004023D3F8003413F0800F1DD04FF0402373
:100B0000D3F81C3413F0800F16D0124B186883886A
:100B10009BB9114800F0FAF9104A136823F010034A
:100B2000136009E00C4800F0FAF9C1B20C4B1970DF
:100B30000C4B1868FFF7A4FE10BDFFF7BBFE014683
:100B4000094B1870044C204600F0E5F9204600F0EF
:100B5000D8F9F1E70C190020004400407418002077
:100B600048190020081900204919002038B5054609
:100B7000262000F049FA40F6113000F059F904231C
:100B8000002202214FF0904000F071F8082300226B
:100B900002214FF0904000F06AF80823012211462C
:100BA0004FF0904000F083F8042207214FF090406E
:100BB00000F098F8082207214FF0904000F092F8DA
:100BC000114C2946204600F04BF90821204600F040
:100BD0006DF90021204600F072F90C21204600F04A
:100BE0007AF90021204600F070F90021204600F03B
:100BF00078F9204600F08AF9204600F07DF9204679
:100C000000F075F938BD00BF0044004008B54FF44E
:100C10006140FFF7ABFF08BD024A136843F48073DD
:100C20001360704700200240034A136823F0070353
:100C300018431060704700BF00200240024A13684A
:100C400043F480631360704700200240024A136837
:100C500043F400731360704700200240436901EAC7
:100C6000030221EA030141EA0241816170472DE953
:100C7000F0410568C46800264FF0030E43FA06F7FA
:100C8000FF070DD577000EFA07FC01FA07F825EAF1
:100C90000C0524EA0C0402FA07F748EA05053C4370
:100CA0000136102EEAD10560C460BDE8F08101294B
:100CB00041680CBF19439943F0B541608168002435
:100CC000032643FA04F5ED0707D5650006FA05F794
:100CD00021EA070102FA05F529430134102CF0D16D
:100CE0008160F0BDF0B5076A466A00234FF00F0C33
:100CF00042FA03F4E50707D59D000CFA05F427EA4C
:100D0000040701FA05F52F430133082BF0D1002326
:100D10004FF00F0C03F1080442FA04F4E40707D57E
:100D20009C000CFA04F526EA050601FA04F42643B1
:100D30000133082BEED107624662F0BD032808D8C4
:100D4000DFE800F0160F08020D4A936813F00C0F4D
:100D5000FBD170470A4A9368C3F38103012BFAD190
:100D60007047074A9368C3F38103022BFAD1704797
:100D7000034A9368C3F38103032BFAD1704700BF82
:100D800000100240062831D8DFE800F0040A0F14F2
:100D900019212900164A136843F0807313607047C5
:100DA000134A136843F48033F8E7114A136843F495
:100DB0008073F3E70E4A136843F00103EEE70C4A31
:100DC000D2F8903043F00103C2F890307047084ADF
:100DD000D2F8943043F00103C2F894307047044ACB
:100DE000D2F8983043F00103C2F89830704700BF42
:100DF00000100240034A936823F0030318439060F5
:100E0000704700BF0010024010B5039C0139640612
:100E100044EA01142043029C40EA4450034343EA5D
:100E20000222024B42F08072DA6010BD00100240D4
:100E3000430903F1804303F5043300F01F001968F0
:100E4000012202FA00F0084318607047034AD2F802
:100E5000003843F00403C2F8003870470000065021
:100E60000E4A904210B54FEA510306D10C4A12685F
:100E70001A44B2FBF1F2C2600FE00A4C0A4AA042E7
:100E80001268F5D1B2FBF1F401FB142203EB02224C
:100E9000B2FBF1F303EB0423C36010BD0038014043
:100EA000080000200080004004000020036808299A
:100EB0000CBF23F4805343F48053036070474368AE
:100EC00023F44053194341607047036823F4C0631F
:100ED000194301607047036823F00C031943016054
:100EE0007047836823F44073194381607047036837
:100EF00043F0010303607047036843F0200303607D
:100F00007047036843F0800303607047036823F071
:100F1000800303607047C1F3080181627047406A33
:100F2000C0F308007047FEE77047000038B51D4A5F
:100F30001D4B1E498B4220D31D4A0021934221D3D1
:100F40004FF0E0231B4CD3F8142D1B4D42F40072DC
:100F5000C3F8142DD3F8882D42F47002C3F8882DFD
:100F6000AC4212D3154C164DAC4212D3FFF71CFC09
:100F7000144C154DAC4210D338BD52F8040B43F855
:100F8000040BD7E743F8041BD8E754F8043B984711
:100F9000E6E754F8043B9847E6E754F8043B9847E3
:100FA000E8E700BF4C100008000000200C00002003
:100FB0004C1900204C1000084C1000084C10000880
:100FC0004C1000084C1000084C1000084FF0E023B3
:100FD00020F07F40586170474FF0E02200F004009D
:100FE000136923F004030343136170474FF0E022B9
:100FF000136943F00203136170474FF0E022136955
:1010000043F0010313617047054B420903EB820370
:1010100000F01F00012202FA00F01860704700BFC4
:1010200000E100E048656C6C6F20576F726C0A0D30
:1010300000000000476F6F64627965204372756538
:0C1040006C20576F726C0A0D000000005D
:0C104C0000093D0000093D0000093D00C6
:0400000508000F2DB3
:00000001FF
