:020000040800F2
:10000000008002202929000825290008232900084A
:1000100023290008232900082329000800000000E4
:10002000000000000000000000000000252900087A
:100030002529000800000000252900086524000883
:100040002329000823290008232900082329000860
:100050002329000823290008232900082329000850
:100060002329000823290008232900082329000840
:100070002329000823290008232900082329000830
:100080002329000823290008232900082329000820
:100090002329000823290008232900082329000810
:1000A0002329000823290008232900082329000800
:1000B00023290008232900082329000823290008F0
:1000C00023290008232900082329000823290008E0
:1000D0002329000823290008CD240008232900082B
:1000E00023290008232900082329000823290008C0
:1000F00023290008232900082329000823290008B0
:10010000232900082329000823290008232900089F
:10011000232900082329000823290008232900088F
:10012000232900082329000823290008232900087F
:10013000232900082329000823290008232900086F
:10014000232900082329000823290008232900085F
:10015000232900082329000823290008232900084F
:10016000232900082329000823290008232900083F
:10017000232900082329000823290008232900082F
:10018000232900082329000823290008232900081F
:10019000232900082329000823290008232900080F
:1001A00023290008232900082329000838B504461C
:1001B000837863F07F0383700388A3B11E2B1FD065
:1001C00008238370002303800325284638BD0423B9
:1001D000A3700325F9E7A37843F00103A370A37884
:1001E00013F0010FF1D120214FF0904002F034FACA
:1001F00002F032F9A0604FF4FA73E3601E2323800B
:10020000A07810F00405E2D1E168A06801F0F4FDE7
:100210000028E0D0A37823F00103A370DFE70000FB
:1002200038B50446837863F07F03837003882C2BF2
:1002300000F2BF80DFE803F044BDBDBDBDBDBDBD64
:10024000BDBDBDBDBDBDBDBDBDBDBDBDBDBDBDBDDE
:10025000BDBDBDBDBDBDBDBDBDBDBDBDBDBD4657AB
:10026000BD708ABDAE000423A3700325A6E043F051
:100270000103A37031E00423A37003259EE043F043
:100280000103A3703BE00423A370032596E043F031
:100290000103A3704CE00423A37003258EE0A37830
:1002A00043F00103A3705FE00423A370032585E0FE
:1002B000A37843F00103A370A37813F0010F7DD15D
:1002C00026232380A37813F00405CCD13C4A12786E
:1002D000002ACCD023F00103A370A37813F0010F00
:1002E0006CD127232380A37813F00405C3D1354AAA
:1002F000B2F90020002AC2DD23F00103A370A37825
:1003000013F0010F5AD1013A2E4B1A802E4A13785E
:10031000013B137029232380A37813F00405B2D185
:100320002A4A126812F0040FB1D123F00103A3701E
:10033000A37813F0010F41D1244A136843F004035A
:100340001360234B00221A802A232380A57815F0FE
:100350000405A0D11F491E4801F090FF02289ED934
:10036000A37823F00103A370A37813F0010F25D124
:10037000164A136823F00403136002F06DF8A060BE
:1003800001F098FE000F4FF47A7303FB00F0E06079
:100390002C232380A57815F0040585D1E168A06899
:1003A00001F02AFD002883D0A37823F00103A37075
:1003B00082E708238370002303800325284638BD85
:1003C000100000201C0000202500002088180020BC
:1003D0003C190020202A000838B50446837863F0D1
:1003E0007F0383700388002B3CD03B2B00F2B3804B
:1003F000352BC0F0B080353B062B00F2AC80DFE837
:1004000003F03344AA5D77AA9B000423A37003255D
:10041000A6E043F00103A37031E00423A370032599
:100420009EE043F00103A3703BE00423A370032587
:1004300096E043F00103A3704CE00423A37003256E
:100440008EE0A37843F00103A3705FE00423A37060
:10045000032585E0A37843F00103A370A37813F08C
:10046000010F7DD135232380A37813F00405CCD16F
:100470003C4A1278002ACCD023F00103A370A37861
:1004800013F0010F6CD136232380A37813F00405F9
:10049000C3D1354AB2F90020002AC2DD23F001039E
:1004A000A370A37813F0010F5AD1013A2E4B1A8092
:1004B0002E4A1378013B137038232380A37813F05E
:1004C0000405B2D12A4A126812F0040FB1D123F008
:1004D0000103A370A37813F0010F41D1244A1368DC
:1004E00043F004031360234B00221A803923238036
:1004F000A57815F00405A0D11F491E4801F0BEFEE5
:1005000002289ED9A37823F00103A370A37813F0E7
:10051000010F25D1164A136823F00403136001F07C
:100520009BFFA06001F0C6FD000F4FF47A7303FB40
:1005300000F0E0603B232380A57815F0040585D109
:10054000E168A06801F058FC002883D0A37823F06C
:100550000103A37082E70823A370002323800325EF
:10056000284638BD110000201C0000202500002076
:10057000881800203C190020402A000838B504469D
:10058000837863F07F0383700388002B3CD0492B72
:1005900000F2B380432BC0F0B080433B062B00F247
:1005A000AC80DFE803F03344AA5D77AA9B00042304
:1005B000A3700325A6E043F00103A37031E00423F8
:1005C000A37003259EE043F00103A3703BE00423E6
:1005D000A370032596E043F00103A3704CE00423CD
:1005E000A37003258EE0A37843F00103A3705FE0BE
:1005F0000423A370032585E0A37843F00103A370CF
:10060000A37813F0010F7DD143232380A37813F047
:100610000405CCD13C4A1278002ACCD023F0010347
:10062000A370A37813F0010F6CD144232380A37827
:1006300013F00405C3D1354AB2F90020002AC2DD07
:1006400023F00103A370A37813F0010F5AD1013AEC
:100650002E4B1A802E4A1378013B137046232380B9
:10066000A37813F00405B2D12A4A126812F0040FDD
:10067000B1D123F00103A370A37813F0010F41D18E
:10068000244A136843F004031360234B00221A80AA
:1006900047232380A57815F00405A0D11F491E48E3
:1006A00001F0ECFD02289ED9A37823F00103A3708A
:1006B000A37813F0010F25D1164A136823F0040321
:1006C000136001F0C9FEA06001F0F4FC000F4FF4CC
:1006D0007A7303FB00F0E06049232380A57815F0CE
:1006E000040585D1E168A06801F086FB002883D06D
:1006F000A37823F00103A37082E70823A3700023EB
:1007000023800325284638BD120000201C0000204D
:1007100025000020881800203C190020602A0008CD
:1007200038B50446837863F07F0383700388002B19
:100730003CD0572B00F2B380512BC0F0B080513B1E
:10074000062B00F2AC80DFE803F03344AA5D77AA01
:100750009B000423A3700325A6E043F00103A370CC
:1007600031E00423A37003259EE043F00103A3704E
:100770003BE00423A370032596E043F00103A3703C
:100780004CE00423A37003258EE0A37843F001031B
:10079000A3705FE00423A370032585E0A37843F0F2
:1007A0000103A370A37813F0010F7DD1512323809F
:1007B000A37813F00405CCD13C4A1278002ACCD09F
:1007C00023F00103A370A37813F0010F6CD152231F
:1007D0002380A37813F00405C3D1354AB2F9002071
:1007E000002AC2DD23F00103A370A37813F0010FE8
:1007F0005AD1013A2E4B1A802E4A1378013B1370BE
:1008000054232380A37813F00405B2D12A4A126836
:1008100012F0040FB1D123F00103A370A37813F0F9
:10082000010F41D1244A136843F004031360234BA2
:1008300000221A8055232380A57815F00405A0D145
:100840001F491E4801F01AFD02289ED9A37823F003
:100850000103A370A37813F0010F25D1164A136882
:1008600023F00403136001F0F7FDA06001F022FC07
:10087000000F4FF47A7303FB00F0E06057232380EE
:10088000A57815F0040585D1E168A06801F0B4FAF7
:10089000002883D0A37823F00103A37082E7082304
:1008A000A370002323800325284638BD13000020B1
:1008B0001C00002025000020881800203C19002082
:1008C000802A000838B50446837863F07F0383707C
:1008D0000388002B3CD0652B00F2B3805F2BC0F067
:1008E000B0805F3B062B00F2AC80DFE803F03344BE
:1008F000AA5D77AA9B000423A3700325A6E043F01A
:100900000103A37031E00423A37003259EE043F0AC
:100910000103A3703BE00423A370032596E043F09A
:100920000103A3704CE00423A37003258EE0A37899
:1009300043F00103A3705FE00423A370032585E067
:10094000A37843F00103A370A37813F0010F7DD1C6
:100950005F232380A37813F00405CCD13C4A12789E
:10096000002ACCD023F00103A370A37813F0010F69
:100970006CD160232380A37813F00405C3D1354ADA
:10098000B2F90020002AC2DD23F00103A370A3788E
:1009900013F0010F5AD1013A2E4B1A802E4A1378C8
:1009A000013B137062232380A37813F00405B2D1B6
:1009B0002A4A126812F0040FB1D123F00103A37088
:1009C000A37813F0010F41D1244A136843F00403C4
:1009D0001360234B00221A8063232380A57815F02F
:1009E0000405A0D11F491E4801F048FC02289ED9E9
:1009F000A37823F00103A370A37813F0010F25D18E
:100A0000164A136823F00403136001F025FDA0606B
:100A100001F050FB000F4FF47A7303FB00F0E0602D
:100A200065232380A57815F0040585D1E168A068C9
:100A300001F0E2F9002883D0A37823F00103A3702A
:100A400082E70823A370002323800325284638BDAE
:100A5000140000201C000020250000208818002021
:100A60003C190020A02A000838B50446837863F0BA
:100A70007F0383700388002B3CD0732B00F2B3807C
:100A80006D2BC0F0B0806D3B062B00F2AC80DFE830
:100A900003F03344AA5D77AA9B000423A3700325C7
:100AA000A6E043F00103A37031E00423A370032503
:100AB0009EE043F00103A3703BE00423A3700325F1
:100AC00096E043F00103A3704CE00423A3700325D8
:100AD0008EE0A37843F00103A3705FE00423A370CA
:100AE000032585E0A37843F00103A370A37813F0F6
:100AF000010F7DD16D232380A37813F00405CCD1A1
:100B00003C4A1278002ACCD023F00103A370A378CA
:100B100013F0010F6CD16E232380A37813F004052A
:100B2000C3D1354AB2F90020002AC2DD23F0010307
:100B3000A370A37813F0010F5AD1013A2E4B1A80FB
:100B40002E4A1378013B137070232380A37813F08F
:100B50000405B2D12A4A126812F0040FB1D123F071
:100B60000103A370A37813F0010F41D1244A136845
:100B700043F004031360234B00221A807123238067
:100B8000A57815F00405A0D11F491E4801F076FB99
:100B900002289ED9A37823F00103A370A37813F051
:100BA000010F25D1164A136823F00403136001F0E6
:100BB00053FCA06001F07EFA000F4FF47A7303FB40
:100BC00000F0E06073232380A57815F0040585D13B
:100BD000E168A06801F010F9002883D0A37823F021
:100BE0000103A37082E70823A37000232380032559
:100BF000284638BD150000201C00002025000020DC
:100C0000881800203C190020C02A000838B5044686
:100C1000837863F07F0383700388002B5DD0802B83
:100C200000F299807B2BC0F096807B3B052B00F275
:100C30009280DFE803F054709090213B0423A3706E
:100C400003258DE043F00103A37053E00423A37058
:100C5000032585E0A37843F00103A370A37813F084
:100C6000010F7DD13F4A1388013313803E4A137828
:100C7000013313707F232380A37813F0040559D127
:100C80003A4A126812F0040F58D123F00103A370FE
:100C9000A37813F0010F63D1344A136843F00403BF
:100CA0001360334B00221A8080232380A57815F02F
:100CB000040547D12F492E4801F0E0FA022845D912
:100CC000A37823F00103A370A37813F0010F47D199
:100CD000264A136823F0040313607B232380A37840
:100CE00013F00405AAD1244A1278002AAAD023F0CE
:100CF0000103A370A37813F0010F31D101F0ACFB15
:100D0000A06001F0D7F9000F4FF47A7303FB00F0F5
:100D1000E0607C232380A57815F0040596D1E16876
:100D2000A06801F069F8002894D0A37823F00103AB
:100D3000A37093E70423A370032511E043F001039C
:100D4000A370A5E70423A370032509E0A37843F06B
:100D50000103A370B8E70823A370002323800325B1
:100D6000284638BD1C0000202500002088180020DF
:100D70003C190020E02A00081600002038B504467F
:100D8000837863F07F0383700388002B5DD08E2B04
:100D900000F29980892BC0F09680893B052B00F2E8
:100DA0009280DFE803F054709090213B0423A370FD
:100DB00003258DE043F00103A37053E00423A370E7
:100DC000032585E0A37843F00103A370A37813F013
:100DD000010F7DD13F4A1388013313803E4A1378B7
:100DE000013313708D232380A37813F0040559D1A8
:100DF0003A4A126812F0040F58D123F00103A3708D
:100E0000A37813F0010F63D1344A136843F004034D
:100E10001360334B00221A808E232380A57815F0AF
:100E2000040547D12F492E4801F028FA022845D958
:100E3000A37823F00103A370A37813F0010F47D127
:100E4000264A136823F00403136089232380A378C0
:100E500013F00405AAD1244A1278002AAAD023F05C
:100E60000103A370A37813F0010F31D101F0F4FA5C
:100E7000A06001F01FF9000F4FF47A7303FB00F03C
:100E8000E0608A232380A57815F0040596D1E168F7
:100E9000A06800F0B1FF002894D0A37823F00103EC
:100EA000A37093E70423A370032511E043F001032B
:100EB000A370A5E70423A370032509E0A37843F0FA
:100EC0000103A370B8E70823A37000232380032540
:100ED000284638BD1C00002025000020881800206E
:100EE0003C190020002B00081700002038B50446EC
:100EF000837863F07F0383700388002B5DD09C2B85
:100F000000F29980972BC0F09680973B052B00F25A
:100F10009280DFE803F054709090213B0423A3708B
:100F200003258DE043F00103A37053E00423A37075
:100F3000032585E0A37843F00103A370A37813F0A1
:100F4000010F7DD13F4A1388013313803E4A137845
:100F5000013313709B232380A37813F0040559D128
:100F60003A4A126812F0040F58D123F00103A3701B
:100F7000A37813F0010F63D1344A136843F00403DC
:100F80001360334B00221A809C232380A57815F030
:100F9000040547D12F492E4801F070F9022845D9A0
:100FA000A37823F00103A370A37813F0010F47D1B6
:100FB000264A136823F00403136097232380A37841
:100FC00013F00405AAD1244A1278002AAAD023F0EB
:100FD0000103A370A37813F0010F31D101F03CFAA3
:100FE000A06001F067F8000F4FF47A7303FB00F084
:100FF000E06098232380A57815F0040596D1E16878
:10100000A06800F0F9FE002894D0A37823F0010333
:10101000A37093E70423A370032511E043F00103B9
:10102000A370A5E70423A370032509E0A37843F088
:101030000103A370B8E70823A370002323800325CE
:10104000284638BD1C0000202500002088180020FC
:101050003C190020202B00081800002038B5044659
:10106000837863F07F0383700388002B5DD0AA2B05
:1010700000F29980A52BC0F09680A53B052B00F2CD
:101080009280DFE803F054709090213B0423A3701A
:1010900003258DE043F00103A37053E00423A37004
:1010A000032585E0A37843F00103A370A37813F030
:1010B000010F7DD13F4A1388013313803E4A1378D4
:1010C00001331370A9232380A37813F0040559D1A9
:1010D0003A4A126812F0040F58D123F00103A370AA
:1010E000A37813F0010F63D1344A136843F004036B
:1010F0001360334B00221A80AA232380A57815F0B1
:10110000040547D12F492E4801F0B8F8022845D9E7
:10111000A37823F00103A370A37813F0010F47D144
:10112000264A136823F004031360A5232380A378C1
:1011300013F00405AAD1244A1278002AAAD023F079
:101140000103A370A37813F0010F31D101F084F9EA
:10115000A06000F0AFFF000F4FF47A7303FB00F0C4
:10116000E060A6232380A57815F0040596D1E168F8
:10117000A06800F041FE002894D0A37823F001037A
:10118000A37093E70423A370032511E043F0010348
:10119000A370A5E70423A370032509E0A37843F017
:1011A0000103A370B8E70823A3700023238003255D
:1011B000284638BD1C00002025000020881800208B
:1011C0003C190020402B00081900002038B50446C7
:1011D000837863F07F0383700388002B5DD0B82B86
:1011E00000F29980B32BC0F09680B33B052B00F240
:1011F0009280DFE803F054709090213B0423A370A9
:1012000003258DE043F00103A37053E00423A37092
:10121000032585E0A37843F00103A370A37813F0BE
:10122000010F7DD13F4A1388013313803E4A137862
:1012300001331370B7232380A37813F0040559D129
:101240003A4A126812F0040F58D123F00103A37038
:10125000A37813F0010F63D1344A136843F00403F9
:101260001360334B00221A80B8232380A57815F031
:10127000040547D12F492E4801F000F8022845D92E
:10128000A37823F00103A370A37813F0010F47D1D3
:10129000264A136823F004031360B3232380A37842
:1012A00013F00405AAD1244A1278002AAAD023F008
:1012B0000103A370A37813F0010F31D101F0CCF832
:1012C000A06000F0F7FE000F4FF47A7303FB00F00C
:1012D000E060B4232380A57815F0040596D1E16879
:1012E000A06800F089FD002894D0A37823F00103C2
:1012F000A37093E70423A370032511E043F00103D7
:10130000A370A5E70423A370032509E0A37843F0A5
:101310000103A370B8E70823A370002323800325EB
:10132000284638BD1C000020250000208818002019
:101330003C190020602B00081A00002038B5044634
:10134000837863F07F0383700388002B5DD0C62B06
:1013500000F29980C12BC0F09680C13B052B00F2B2
:101360009280DFE803F054709090213B0423A37037
:1013700003258DE043F00103A37053E00423A37021
:10138000032585E0A37843F00103A370A37813F04D
:10139000010F7DD13F4A1388013313803E4A1378F1
:1013A00001331370C5232380A37813F0040559D1AA
:1013B0003A4A126812F0040F58D123F00103A370C7
:1013C000A37813F0010F63D1344A136843F0040388
:1013D0001360334B00221A80C6232380A57815F0B2
:1013E000040547D12F492E4800F048FF022845D96F
:1013F000A37823F00103A370A37813F0010F47D162
:10140000264A136823F004031360C1232380A378C2
:1014100013F00405AAD1244A1278002AAAD023F096
:101420000103A370A37813F0010F31D101F014F878
:10143000A06000F03FFE000F4FF47A7303FB00F052
:10144000E060C2232380A57815F0040596D1E168F9
:10145000A06800F0D1FC002894D0A37823F0010309
:10146000A37093E70423A370032511E043F0010365
:10147000A370A5E70423A370032509E0A37843F034
:101480000103A370B8E70823A3700023238003257A
:10149000284638BD1C0000202500002088180020A8
:1014A0003C190020802B00081B00002038B50446A2
:1014B000837863F07F0383700388002B3DD0D42BA7
:1014C00000F2B480CF2BC0F0B180CF3B052B00F2EF
:1014D000AD80DFE803F0344E657DAB9C0423A37040
:1014E0000325A8E043F00103A37034E00423A370B4
:1014F0000325A0E0A37843F00103A37047E0042391
:10150000A370032597E0A37843F00103A37056E08E
:101510000423A37003258EE0A37843F00103A37096
:1015200064E00423A370032585E0A37843F001035E
:10153000A370A37813F0010F7DD1CF232380A3786C
:1015400013F00405CAD13D4A126812F0040FC9D144
:1015500023F00103A370A37813F0010F6BD1374A76
:10156000136843F004031360354B00221A80D02324
:101570002380A57815F00405B8D13249304800F031
:101580007DFE0228B6D9A37823F00103A370A378C7
:1015900013F0010F4FD12A4B00221A80D123238050
:1015A000A57815F00405AAD1274B1978244800F036
:1015B000DFFD0228A7D9A37823F00103A370A37845
:1015C00013F0010F37D11E4B00221A80D223238043
:1015D000A57815F004059BD11C49194800F04EFE72
:1015E000022899D9A37823F00103A370A37813F0FC
:1015F000010F20D1114A136823F00403136000F097
:101600002BFFA0604FF4FA63E360D4232380A57816
:1016100015F0040585D1E168A06800F0EDFB002815
:1016200083D0A37823F00103A37082E70823A3707B
:10163000002323800325284638BD00BF88180020DA
:101640003C190020A02B000825000020B42B000826
:10165000837863F07F0383700388002B3FD1284B8E
:101660001970284B1A7006293FD0042904D9264B3B
:101670004FF0010C83F800C0032904D9234B4FF02D
:10168000010C83F800C0022904D9214B4FF0010C52
:1016900083F800C0012904D91E4B4FF0010C83F8D8
:1016A00000C011B11C4B01211970062A23D0042A55
:1016B00002D91A4B01211970032A02D9184B0121B2
:1016C0001970022A02D9174B01211970012A02D977
:1016D000154B0121197012B1144B01221A70082305
:1016E00083700023038003207047114B4FF0010CDF
:1016F00083F800C0B9E70F4B01211970D7E700BF8D
:1017000026000020240000201A00002019000020DC
:1017100018000020170000201600002014000020F0
:1017200013000020120000201100002010000020F3
:101730001B0000201500002038B50446827842F0D6
:1017400080028270038843B3B3F5917F80F0B88143
:10175000B3F5847FC0F0B481A3F58473192B00F234
:10176000AF81DFE813F01D003700AD0155007000B8
:101770008C00A800AD01CB00AD01AD01AD01E600CC
:1017800001011D013801AD015A01AD01AD01AD01ED
:10179000AD01AD01AD01AD0195014FF4847303803E
:1017A00012F0040540F09381AF4B1B6813F0040F57
:1017B00040F0918122F00102A270A37813F0010F92
:1017C00040F08381A84A136843F00403136040F299
:1017D00009132380A37813F0040540F08081A24A06
:1017E000126812F0080F40F07E8123F00103A3700D
:1017F000A37813F0010F40F068819B4A136843F00F
:1018000008031360994B00221A8040F20B132380C7
:10181000A57815F0040540F06A819549934800F0D9
:101820002DFD022840F26781A37823F00103A37005
:10183000A37813F0010F40F048818E4B00221A80EC
:101840004FF486732380A57815F0040540F0588185
:1018500001228949874800F053FD022840F2548153
:10186000A37823F00103A370A37813F0010F40F0D5
:101870002C817E4B00221A8040F20D132380A57824
:1018800015F0040540F045817B4B1978774800F04E
:1018900035FC022840F24181A37823F00103A370B4
:1018A000A37813F0010F40F01081704B00221A80D2
:1018B0004FF487732380A57815F0040540F032813A
:1018C0006E496A4800F0DAFC022840F22F81A378C2
:1018D00023F00103A370A37813F0010F40F0F5800B
:1018E000654B1A78A2F13103DBB2052B40F22C8153
:1018F0005E4B00221A804FF488732380A57815F080
:10190000040540F018815E49584800F0B7FC0228F1
:1019100040F21581A37823F00103A370A37813F09C
:10192000010F40F0D280514B00221A804FF48A738D
:101930002380A57815F0040540F00A8151494B48F1
:1019400000F09CFC022840F20781A37823F00103F9
:10195000A370A37813F0010F40F0B780454B00222D
:101960001A8040F215132380A57815F0040540F085
:10197000F880012244493F4800F0C2FC022840F2AE
:10198000F480A37823F00103A370A37813F0010F70
:1019900040F09B80354B00221A804FF48B732380DC
:1019A000A57815F0040540F0E580374B19782F48ED
:1019B00000F0A4FB022840F2E180A37823F00103A9
:1019C000A370A37813F0010F7FD1284B00221A8057
:1019D00040F217132380A57815F0040540F0D3805A
:1019E0002649224800F04AFC022840F2D080A37821
:1019F00023F00103A370A37813F0010F65D1224BEC
:101A00001A78A2F13103DBB2052B40F2CE80174BDE
:101A100000221A8040F219132380A57815F00405DE
:101A200040F0BA801649114800F028FC022840F224
:101A3000B780A37823F00103A370A37813F0010FFC
:101A400043D1094A136823F00401116023F00C0309
:101A5000136000F0BBF90D4B18600023038040F2C7
:101A60002113238014E000BF881800203C190020B7
:101A7000C02B00082419002001000020F02B0008D2
:101A8000F42B0008182C0008000000202000002083
:101A9000A57815F0040540F08C804A4B1A784A4B23
:101AA00019784A4B1868FFF7D3FD022840F2858069
:101AB000A37823F00103A370A37813F0010F04D1DE
:101AC0000823A370002323800325284638BD042360
:101AD000A3700325F9E742F00102A2706DE604232A
:101AE000A3700325F1E743F00103A37080E604230C
:101AF000A3700325E9E7A37843F00103A37097E6F9
:101B00000423A3700325E0E7A37843F00103A37047
:101B1000AAE60423A3700325D7E7A37843F00103C3
:101B2000A370BDE60423A3700325CEE7A37843F09A
:101B30000103A370CFE60423A3700325C5E7A378B0
:101B400043F00103A370E9E6303A1F4B1A70EAE64E
:101B50000423A3700325B8E7A37843F00103A3701F
:101B6000F7E60423A3700325AFE7A37843F001034E
:101B7000A3700AE70423A3700325A6E7A37843F024
:101B80000103A3701DE70423A37003259DE7A37839
:101B900043F00103A3702EE70423A370032594E709
:101BA000A37843F00103A37047E7303A054B1A705E
:101BB00047E70423A370032587E7A37843F00103D5
:101BC000A37079E700000020010000202000002021
:101BD00008B5002000F02AFE2023012211464FF014
:101BE000904000F042FD08BD014B00221A80704772
:101BF0001C00002008B5FFF7EBFFFFF7F5FF1748C3
:101C000000F04AF8164800F047F8164800F044F88B
:101C1000154800F041F8154800F03EF8144800F06F
:101C20003BF8144800F038F8134800F035F8134832
:101C300000F032F8124800F02FF8124800F02CF8AB
:101C4000114800F029F8114800F026F8104800F07B
:101C500023F8104800F020F808BD00BFAD010008CF
:101C600039170008AD1400080D0C00087D0D0008A0
:101C7000ED0E00085D100008CD1100083D130008AE
:101C800021020008D90300087D050008210700088B
:101C9000C5080008690A000830B5334B1D781F2DB0
:101CA00003D80024A646234603E000203AE001338F
:101CB000DBB21F2B37D803EB43022C4901EBC202E6
:101CC0005268824206D0002CF1D1002AEFD19E4604
:101CD0000124ECE7254A03EB4301CC0002EBC101F0
:101CE00000201053887049690968888020494B5545
:101CF00001351D490D700EEB4E0102EBC102128A37
:101D00005AB91C490A88013292B20A800EEB4E0E73
:101D1000164901EBCE0EAEF8102003EB4303134837
:101D200000EBC30030BDE4B1104B0EEB4E02D4000B
:101D300003EBC20250600021195391705069006892
:101D400081800B4901F805E0013507490D7009480C
:101D50000188013189B2018011820EEB4E0E1046CE
:101D6000E0E70020DEE700BF9518002068060020AD
:101D70006809002092180020002301E00133DBB243
:101D80000E4A12789A4217D99C460D4AD25CFD2A17
:101D9000F4D802EB42020B4901EBC20252688242C4
:101DA000ECD1074BFE2203F80C20074A136843F0DE
:101DB0000103136001207047002070479518002030
:101DC00068090020680600208818002000231F2BC7
:101DD0000ED803EB4301CA0006498A5A12B10133F7
:101DE0009BB2F4E703EB4300C30008461844704776
:101DF000002070472800002038B504460D4600F04A
:101E00002BFB031BA04200D2013BAB4201D90120B6
:101E100038BD0020FCE7000038B5134B1D780024C6
:101E200003E0013DEDB20134E4B2E5B10123A3408A
:101E30000E4909680B42F6D004EB44018B000C49B3
:101E400019448B68013B8B60002BEAD1084904EBF5
:101E5000440083000B445868986004EB44029300EC
:101E6000CB589847DDE738BD901800208C1800202B
:101E7000A805002010B5002423E004EB4403DA0099
:101E8000214B134400215960204AFF20105504EBD8
:101E90004402D0001E4A024451601E4A02EBC400B4
:101EA000586104EB440399001B4B0B4442F8343057
:101EB000C4EB0412D3001949194400F06DFA01343F
:101EC000E4B21F2CD9D90023154A13600F2B08D870
:101ED00003EB43018A001349002088500133DBB231
:101EE000F4E70023104A1370104A1370104A13705D
:101EF000202000F0B5F800F0C3FA00F053FA00F02B
:101F0000DDF8FFF777FE10BD6806002068090020A5
:101F100028000020A80400202803002088090020B1
:101F20008C180020A8050020951800209418002087
:101F30009018002070B5FFF79DFF234B00221A80F8
:101F40001CE00134E4B2B44213D2204B1D5D05EB1A
:101F500045031F4800EBC300436898470328F0D1AE
:101F600005EB45051A4B03EBC5056868FFF704FF51
:101F7000E7E7184B1B6813F0010F03D1164B1E78CF
:101F80000024E0E7144A1178104A525CFE2A03D07C
:101F900099B10139C9B2F7E74A1CD2B205E0541E23
:101FA0000A48855C05550132D2B2B242F7D3013EF0
:101FB000064AFF209055F6B2EAE7074A167023F06A
:101FC0000103044A1360D9E7921800206809002031
:101FD0006806002088180020951800200023438000
:101FE00083800280816070478388B0F800C06345B9
:101FF0000BD24288134493FBFCF20CFB1233826831
:102000009BB2D15483880133838070474388828890
:102010001344028893FBF2FC02FB1C3382689BB2E0
:10202000D15483880288934202D001338380704761
:102030004388013393FBF2F102FB11334380704775
:10204000034681684288885C0132198892FBF1FC62
:1020500001FB1C225A809A88013A9A80704700003E
:10206000014B1860704700BF981800200F4B1B6889
:1020700003EB8300C0EB001003EB4010C0EBC0008B
:10208000C0EB00401B0C44F2A71203FB02F2084B0A
:1020900003EA0243184410EBD23002D4034B186019
:1020A000704700F100400130F8E700BF98180020A9
:1020B0000000FF7F08B500F0DFF908BD10B5094C3E
:1020C000094B236009480A4B186040220949FFF771
:1020D00085FF402208492068FFF780FF00F094FA4E
:1020E00010BD00BF1C1900205419002060190020E9
:1020F00020190020DC1800209C18002010B5044690
:10210000837843F08003837002883AB1542A09D05F
:102110000823A37000232380032010BD124A1170EE
:102120005422028013F0040015D1104A126811885D
:102130009288914213D023F00103A370A37813F087
:10214000010FEAD1084B1978084B1868FFF74CFFCC
:1021500000F09AF9DCE70423A3700320DDE743F0E5
:102160000103A370EAE700BF8019002020190020B6
:1021700010B50446837863F07F03837003883BB116
:10218000842B47D00823A37000232380032010BD95
:10219000344B00221A70632908D901221A70324B7D
:1021A000A3FB01235B093033304A1370092912D98C
:1021B0002C4B1A78501C18702B4BA3FB01035B09A6
:1021C000642000FB1313DBB22948A0FB0303DB08E8
:1021D000303326488354234B93F800C00CF101029E
:1021E000D2B21A70224BA3FB0103DB0803EB83037B
:1021F000A1EB430130311D4800F80C10002383543B
:102200001C4A13701B4B1A78164B1B789A4225D226
:1022100084232380A37813F0040017D1164A126890
:1022200011889288914215D023F00103A370A378FE
:1022300013F0010FABD10F4A1378591C11700B4AE0
:10224000D15C0D4B1868FFF7CFFEDBE70423A370CA
:1022500003209CE743F00103A370E8E700F014F9C2
:1022600090E700BF7E1900201F85EB516C190020FC
:10227000CDCCCCCC7D1900202019002010B504460F
:10228000837863F07F03837003883BB1BF2B0ED04C
:102290000823A37000232380032010BD164B196070
:1022A000154B1B681B78002BF2D0BF232380A3782B
:1022B00013F0040018D1114A1268118892889142D3
:1022C00016D023F00103A370A37813F0010FE4D11B
:1022D000094A1368591C11601978084B1868FFF7F0
:1022E00083FE00F0D1F8DBE70423A3700320D4E7DA
:1022F00043F00103A370E7E77819002020190020BC
:10230000F8B50446837863F07F03837003883BB19C
:10231000D72B14D00823A370002323800320F8BDFB
:10232000194B1A70194B1960194B00221A70184B6F
:102330001A78154B1B789A42ECD2D7232380A378C6
:1023400013F0040017D1134A12689288BAB123F02F
:102350000103A370A37813F0010FE0D10C4D2E7888
:102360000A4B1F680B4B1868FFF76AFEB8552B78AD
:1023700001332B70DBE70423A3700320CFE743F086
:102380000103A370E6E700BF7C1900207419002048
:102390007F1900201C19002008B578220068FFF77B
:1023A0001DFE08BD10B582B0042000F013FB2448C8
:1023B00000F00AFB00F01FFB00F016FB022000F00B
:1023C000DFF900F027F9042000F02CF900F034F9CF
:1023D00000F03AF9002401940094234628220421B5
:1023E000022000F00FFA204600F0CAF94FF41860FE
:1023F00000F01CFA40F6811000F018FA40F6821046
:1024000000F014FA40F6831000F010FA40F6841041
:1024100000F00CFA4FF4406000F008FA032000F0DE
:10242000E7F9204600F088F9064B074A1360074A8F
:102430001360074A1360074B1C6002B010BD00BF59
:102440008038010000B4C40404000020080000200B
:102450000C00002084190020014B1868704700BF51
:102460008419002008B5034A136801331360FFF78D
:10247000D3FC08BD8419002008B5FFF7F7FD08BD9F
:1024800008B500F0E1F908BD0C4B1B6813F0100F04
:1024900000D0704710B543F01003084A1360084B92
:1024A0001868FFF7CDFD0146064B1870064C204614
:1024B00000F02FFA204600F022FA10BD8818002004
:1024C00020190020891900200044004010B54FF069
:1024D0004023D3F8003413F0200F06D04FF04023F0
:1024E000D3F81C3413F0200F1AD14FF04023D3F847
:1024F000003413F0800F1DD04FF04023D3F81C346C
:1025000013F0800F16D0124B186883889BB91148BE
:1025100000F0FAF9104A136823F01003136009E081
:102520000C4800F0FAF9C1B20C4B19700C4B18684A
:10253000FFF76CFD10BDFFF783FD0146094B1870D6
:10254000044C204600F0E5F9204600F0D8F9F1E708
:10255000201900200044004088180020881900201D
:102560001C1900208919002038B50546262000F0E6
:1025700049FA40F6113000F059F9042300220221F3
:102580004FF0904000F071F80823002202214FF034
:10259000904000F06AF80823012211464FF0904065
:1025A00000F083F8042207214FF0904000F098F8E3
:1025B000082207214FF0904000F092F8114C294674
:1025C000204600F04BF90821204600F06DF900216B
:1025D000204600F072F90C21204600F07AF9002123
:1025E000204600F070F90021204600F078F92046DE
:1025F00000F08AF9204600F07DF9204600F075F9D8
:1026000038BD00BF0044004008B54FF46140FFF7FB
:10261000ABFF08BD024A136843F480731360704730
:1026200000200240034A136823F007031843106098
:10263000704700BF00200240024A136843F48063E1
:102640001360704700200240024A136843F400738D
:102650001360704700200240436901EA030221EA47
:10266000030141EA0241816170472DE9F0410568AB
:10267000C46800264FF0030E43FA06F7FF070DD596
:1026800077000EFA07FC01FA07F825EA0C0524EAA0
:102690000C0402FA07F748EA05053C430136102E00
:1026A000EAD10560C460BDE8F081012941680CBF32
:1026B00019439943F0B5416081680024032643FA29
:1026C00004F5ED0707D5650006FA05F721EA0701CD
:1026D00002FA05F529430134102CF0D18160F0BDD8
:1026E000F0B5076A466A00234FF00F0C42FA03F474
:1026F000E50707D59D000CFA05F427EA040701FA5F
:1027000005F52F430133082BF0D100234FF00F0CB8
:1027100003F1080442FA04F4E40707D59C000CFA1C
:1027200004F526EA050601FA04F426430133082BD2
:10273000EED107624662F0BD032808D8DFE800F05A
:10274000160F08020D4A936813F00C0FFBD1704767
:102750000A4A9368C3F38103012BFAD17047074AF1
:102760009368C3F38103022BFAD17047034A93683D
:10277000C3F38103032BFAD1704700BF001002405E
:10278000062831D8DFE800F0040A0F1419212900C7
:10279000164A136843F0807313607047134A136836
:1027A00043F48033F8E7114A136843F48073F3E786
:1027B0000E4A136843F00103EEE70C4AD2F890305A
:1027C00043F00103C2F890307047084AD2F89430C1
:1027D00043F00103C2F894307047044AD2F89830AD
:1027E00043F00103C2F89830704700BF0010024068
:1027F000034A936823F0030318439060704700BFB7
:102800000010024010B5039C0139640644EA01142B
:102810002043029C40EA4450034343EA0222024B15
:1028200042F08072DA6010BD00100240430903F1EB
:10283000804303F5043300F01F001968012202FAF7
:1028400000F0084318607047034AD2F8003843F09C
:102850000403C2F800387047000006500E4A904248
:1028600010B54FEA510306D10C4A12681A44B2FB64
:10287000F1F2C2600FE00A4C0A4AA0421268F5D198
:10288000B2FBF1F401FB142203EB0222B2FBF1F3E1
:1028900003EB0423C36010BD003801400C0000208E
:1028A0000080004008000020036808290CBF23F4C2
:1028B000805343F4805303607047436823F44053CC
:1028C000194341607047036823F4C06319430160F2
:1028D0007047036823F00C03194301607047836855
:1028E00023F44073194381607047036843F0010388
:1028F00003607047036843F0200303607047036878
:1029000043F0800303607047036823F08003036093
:102910007047C1F3080181627047406AC0F3080044
:102920007047FEE77047000038B51D4A1D4B1E4931
:102930008B4220D31D4A0021934221D34FF0E02344
:102940001B4CD3F8142D1B4D42F40072C3F8142D08
:10295000D3F8882D42F47002C3F8882DAC4212D30C
:10296000154C164DAC4212D3FFF7E4FA144C154D3A
:10297000AC4210D338BD52F8040B43F8040BD7E730
:1029800043F8041BD8E754F8043B9847E6E754F8AB
:10299000043B9847E6E754F8043B9847E8E700BF54
:1029A000482C000800000020100000208C19002096
:1029B000482C0008482C0008482C0008482C000827
:1029C000482C0008482C00084FF0E02320F07F40FE
:1029D000586170474FF0E02200F00400136923F0C3
:1029E00004030343136170474FF0E022136943F07F
:1029F0000203136170474FF0E022136943F00103B3
:102A000013617047054B420903EB820300F01F007E
:102A1000012202FA00F01860704700BF00E100E0F8
:102A2000436F6E73756D6572203120636F6E7375C1
:102A30006D656420612070726F647563740A0D00A7
:102A4000436F6E73756D6572203220636F6E7375A0
:102A50006D656420612070726F647563740A0D0087
:102A6000436F6E73756D6572203320636F6E73757F
:102A70006D656420612070726F647563740A0D0067
:102A8000436F6E73756D6572203420636F6E73755E
:102A90006D656420612070726F647563740A0D0047
:102AA000436F6E73756D6572203520636F6E73753D
:102AB0006D656420612070726F647563740A0D0027
:102AC000436F6E73756D6572203620636F6E73751C
:102AD0006D656420612070726F647563740A0D0007
:102AE00050726F647563657220312070726F647507
:102AF00063656420612070726F647563740A0D00F1
:102B000050726F647563657220322070726F6475E5
:102B100063656420612070726F647563740A0D00D0
:102B200050726F647563657220332070726F6475C4
:102B300063656420612070726F647563740A0D00B0
:102B400050726F647563657220342070726F6475A3
:102B500063656420612070726F647563740A0D0090
:102B600050726F647563657220352070726F647582
:102B700063656420612070726F647563740A0D0070
:102B800050726F647563657220362070726F647561
:102B900063656420612070726F647563740A0D0050
:102BA00050726F64756374205265706F72743A204E
:102BB000000000002070726F64756374730A0D006A
:102BC000506C6561736520656E746572207468650C
:102BD000206E756D626572206F662070726F64750D
:102BE000636572732028312D36293A2000000000D9
:102BF0000A0D0000496E76616C6964206E756D6225
:102C000065722C2064656661756C74696E672074EA
:102C10006F20330A0D000000506C656173652065FC
:102C20006E74657220746865206E756D62657220C1
:102C30006F6620436F6E73756D6572732028312D3A
:082C400036293A2000000000D3
:102C48000303000000093D0000093D0000093D00A4
:04000005080029299D
:00000001FF
