:020000040800F2
:1000000000800220F1140008ED140008EB14000831
:10001000EB140008EB140008EB14000800000000CB
:10002000000000000000000000000000ED140008C7
:10003000ED14000800000000ED140008750F000822
:10004000EB140008EB140008EB140008EB14000894
:10005000EB140008EB140008EB140008EB14000884
:10006000EB140008EB140008EB140008EB14000874
:10007000EB140008EB140008EB140008EB14000864
:10008000EB140008EB140008EB140008EB14000854
:10009000EB140008EB140008EB140008EB14000844
:1000A000EB140008EB140008EB140008EB14000834
:1000B000EB140008EB140008EB140008EB14000824
:1000C000EB140008EB140008EB140008EB14000814
:1000D000EB140008EB140008D50F0008EB1400081F
:1000E000EB140008EB140008EB140008EB140008F4
:1000F000EB140008EB140008EB140008EB140008E4
:10010000EB140008EB140008EB140008EB140008D3
:10011000EB140008EB140008EB140008EB140008C3
:10012000EB140008EB140008EB140008EB140008B3
:10013000EB140008EB140008EB140008EB140008A3
:10014000EB140008EB140008EB140008EB14000893
:10015000EB140008EB140008EB140008EB14000883
:10016000EB140008EB140008EB140008EB14000873
:10017000EB140008EB140008EB140008EB14000863
:10018000EB140008EB140008EB140008EB14000853
:10019000EB140008EB140008EB140008EB14000843
:1001A000EB140008EB140008EB14000808B520213C
:1001B0004FF0904001F033F808BD000008B54FF44F
:1001C0000051044801F028F808B1012008BD0020C2
:1001D000FCE700BF0008004838B50446837863F0A8
:1001E0007F0383700388452B22D0492B36D093B1EF
:1001F00008238370002303800325284638BD042389
:10020000A3700325F9E7A37843F00103A370A37853
:1002100013F0010FF1D1FFF7C9FFFFF7CFFFB0B126
:1002200000F0A2FEA0601B4B1B88E36045232380E7
:10023000A57815F00405E2D1E168A06800F0BAFBEA
:100240000028E0D0A37823F00103A370DFE700F0DB
:100250008BFEA0603E23E36049232380A57815F040
:1002600004050DD1E168A06800F0A4FB60B1A3789B
:1002700023F00103A370A37813F0010FCBD0BCE7E8
:100280000423A3700325B8E7A37843F00103A37008
:10029000F1E700BF0000002008B5FFF78FFF08B9A5
:1002A000012008BD0020FCE770B50446837863F0A8
:1002B0007F0383700388A62B00F28680932B19D3CB
:1002C000933B132B00F29282DFE813F0F700120148
:1002D00090029002900290029002490190029002D6
:1002E00090029002900290029002900290028F0180
:1002F000AC01C401642B4BD0652B44D1A57815F01B
:10030000040540F08B800122A749A84800F06CFD4D
:10031000022840F28780A37823F00103A370A3781A
:1003200013F0010F40F06782A14A136823F008031D
:100330001360A04B1B780C2B02D99E4B00221A7025
:100340009D4B1B780C2B02D99B4B00221A70964BAD
:100350001A78A2F16103DBB2192B68D9924B1B7892
:10036000212B00F09780954A1278022A02D94C2B53
:1003700000F09580022A02D9532B00F0E2818F4BC6
:1003800000221A7085E1002B40F030826423238024
:10039000A37813F0040539D1854A126812F0080FCA
:1003A00038D123F00103A370A37813F0010F40F0BC
:1003B00022827F4A136843F0080313607B4B0022BC
:1003C0001A806523238099E7E02B00F08581E12BDB
:1003D00040F00C82A57815F0040540F0FA81724BCC
:1003E0001978774800F040FC022840F2F681A378A3
:1003F00023F00103A370A37813F0010F40F0FB81F9
:100400006B4A136823F004031360BFE70423A3704F
:100410000325F0E143F00103A370C5E70423A370B3
:100420000325E8E1A37843F00103A37077E7203ABE
:100430005D4B1A70FFF7C2FEB0B15B4E3278413AA5
:100440005C4D29785F4B5B5C413B1A445E4880FB06
:100450000230D317C3EBE0031A2000FB1323413310
:1004600033700131297079E7534D2978554B5B5C26
:100470004D4E3278D21A1A32534880FB0230D317CD
:10048000C3EBE0031A2000FB132341333370013127
:10049000297063E7494A137801331370F9E0FFF7D5
:1004A0008DFE002800F09880484B18880A224849A1
:1004B000400000F04BFE93232380A37813F0040543
:1004C00037D13B4A126812F0040F36D123F00103F2
:1004D000A370A37813F0010F40F08D81344A1368A4
:1004E00043F004031360364B00221A8094232380C8
:1004F000A57815F0040524D14C21314800F0B4FB57
:10050000022822D9A37823F00103A370A37813F063
:10051000010F40F070812F4B00221A702D4B1B7879
:100520002B4AD35CB3B9224A136823F00403136047
:10053000A9E00423A37003255DE143F00103A37048
:10054000C7E70423A370032555E1A37843F0010313
:10055000A370DBE71A4B00221A809A232380A57828
:1005600015F0040516D11B4B1B78194AD15C1448B1
:1005700000F07AFB022811D9A37823F00103A370BD
:10058000A37813F0010F40F03681124A137801333B
:100590001370C3E70423A37003252CE1A37843F071
:1005A0000103A370ECE700BF250000202419002000
:1005B00088180020220000202100002024000020B4
:1005C0003C1900201C1600084FECC44E000000200F
:1005D0001000002020000020FFF75EFE002852D00F
:1005E000864B7C221A70A4232380A37813F0040581
:1005F00040F08D80824A126812F0040F40F08B8028
:1006000023F00103A370A37813F0010F40F0F380EF
:100610007B4A136843F0040313607A4B00221A806C
:10062000A5232380A57815F0040578D14C217548C1
:1006300000F01AFB022876D9A37823F00103A370F7
:10064000A37813F0010F40F0D6806E4B00221A8081
:10065000A6232380A57815F0040569D1674B197886
:10066000684800F03BFB022866D9A37823F0010319
:10067000A370A37813F0010F40F0BD80604A1368A7
:1006800023F004031360604B01221A705F4B0022B9
:100690001A705F4B1B78ABB15E4B1B7893B95E4B06
:1006A0001B78002B58D101335B4A1370534B1B78D6
:1006B000303BC3EB431203EB820358490A8802EB39
:1006C000C3030B80534B00221A704F4B1B78002B37
:1006D00040F08880E0232380A37813F0040570D1D4
:1006E000474A126812F0040F6FD123F00103A37080
:1006F000A37813F0010F7ED1414A136843F004033D
:100700001360404B00221A80E123238062E6042319
:10071000A37003256FE043F00103A37073E7042384
:10072000A370032567E0A37843F00103A37087E774
:100730000423A37003255EE0A37843F00103A370B4
:1007400097E70123324A1370324A13700023334A69
:1007500013802E4A13709CE7012B14D0022B22D059
:10076000032BAFD1254B1B782C4A11880B44303B0F
:100770009BB213805B082A4A13800023244A13701B
:10078000254A13709EE70133234A13701B4B1B78D5
:10079000303B03EB830303EB830320490A8802EB1E
:1007A00083030B808EE701331B4A1370134B1B78B6
:1007B000303B03EB830319490A8802EB43030B80A8
:1007C00080E70423A370032515E043F00103A37021
:1007D0008EE70423A37003250DE0A37843F0010303
:1007E000A37008E6084B00221A70CFE50823A37017
:1007F000002323800325284670BD00BF250000206C
:10080000881800203C1900201C0000202400002033
:100810001A0000201B000020230000201E000020E2
:100820000000002008B5002000F0E4FD4FF4006057
:1008300000F0E0FD4FF4005300221146054800F09F
:10084000F7FC2023002201214FF0904000F0F0FC43
:1008500008BD00BF0008004808B5FFF7E3FF0548E2
:1008600000F00EFB044800F00BF8044800F008F814
:1008700008BD00BFE8150008D9010008A90200085A
:1008800030B5334B1D781F2D03D80024A6462346D0
:1008900003E000203AE00133DBB21F2B37D803EB33
:1008A00043022C4901EBC2025268824206D0002C5E
:1008B000F1D1002AEFD19E460124ECE7254A03EB53
:1008C0004301CC0002EBC10100201053887049693C
:1008D0000968888020494B5501351D490D700EEB84
:1008E0004E0102EBC102128A5AB91C490A88013230
:1008F00092B20A800EEB4E0E164901EBCE0EAEF808
:10090000102003EB4303134800EBC30030BDE4B1F8
:10091000104B0EEB4E02D40003EBC20250600021DC
:10092000195391705069006881800B4901F805E006
:10093000013507490D7009480188013189B20180EC
:1009400011820EEB4E0E1046E0E70020DEE700BFFE
:1009500095180020680600206809002092180020E1
:10096000002301E00133DBB20E4A12789A4217D914
:100970009C460D4AD25CFD2AF4D802EB42020B4998
:1009800001EBC20252688242ECD1074BFE2203F80F
:100990000C20074A136843F00103136001207047DD
:1009A0000020704795180020680900206806002084
:1009B0008818002038B504460D4600F0D5FA031B10
:1009C000A04200D2013BAB4201D9012038BD00203A
:1009D000FCE7000038B5134B1D78002403E0013D0F
:1009E000EDB20134E4B2E5B10123A3400E49096838
:1009F0000B42F6D004EB44018B000C4919448B6880
:100A0000013B8B60002BEAD1084904EB44008300D2
:100A10000B445868986004EB44029300CB58984705
:100A2000DDE738BD901800208C180020A8050020B4
:100A300010B5002423E004EB4403DA00214B1344F7
:100A400000215960204AFF20105504EB4402D000D9
:100A50001E4A024451601E4A02EBC400586104EB76
:100A6000440399001B4B0B4442F83430C4EB04128E
:100A7000D3001949194400F017FA0134E4B21F2CCD
:100A8000D9D90023154A13600F2B08D803EB430173
:100A90008A001349002088500133DBB2F4E70023B9
:100AA000104A1370104A1370104A1370202000F07F
:100AB000B5F800F069FA00F0FDF900F0B5F8FFF7BD
:100AC000CBFE10BD68060020680900202800002029
:100AD000A804002028030020880900208C1800208A
:100AE000A8050020951800209418002090180020D8
:100AF00070B5FFF79DFF234B00221A801CE00134E4
:100B0000E4B2B44213D2204B1D5D05EB45031F48F0
:100B100000EBC300436898470328F0D105EB450577
:100B20001A4B03EBC5056868FFF71AFFE7E7184B98
:100B30001B6813F0010F03D1164B1E780024E0E769
:100B4000144A1178104A525CFE2A03D099B1013937
:100B5000C9B2F7E74A1CD2B205E0541E0A48855CC8
:100B600005550132D2B2B242F7D3013E064AFF2008
:100B70009055F6B2EAE7074A167023F00103044ADB
:100B80001360D9E792180020680900206806002049
:100B9000881800209518002000234380838002805D
:100BA000816070478388B0F800C063450BD24288EB
:100BB000134493FBFCF20CFB123382689BB2D154BA
:100BC0008388013383807047438882881344028876
:100BD00093FBF2FC02FB1C3382689BB2D1548388E6
:100BE0000288934202D001338380704743880133E7
:100BF00093FBF2F102FB1133438070470346816897
:100C00004288885C0132198892FBF1FC01FB1C22AE
:100C10005A809A88013A9A8070470000014B186008
:100C2000704700BF9818002010B5094C094B23608D
:100C300009480A4B186040220949FFF7ADFF4022DE
:100C400008492068FFF7A8FF00F062FA10BD00BF56
:100C50001C190020541900206019002020190020C0
:100C6000DC1800209C18002010B50446837843F05F
:100C70008003837002883AB1542A09D00823A370F4
:100C800000232380032010BD124A117054220280D9
:100C900013F0040015D1104A12681188928891420D
:100CA00013D023F00103A370A37813F0010FEAD14E
:100CB000084B1978084B1868FFF774FF00F068F9C3
:100CC000DCE70423A3700320DDE743F00103A370F6
:100CD000EAE700BF7C1900202019002010B5044667
:100CE000837863F07F03837003883BB1842B47D004
:100CF0000823A37000232380032010BD344B00225F
:100D00001A70632908D901221A70324BA3FB012300
:100D10005B093033304A1370092912D92C4B1A78E9
:100D2000501C18702B4BA3FB01035B09642000FBD4
:100D30001313DBB22948A0FB0303DB08303326483A
:100D40008354234B93F800C00CF10102D2B21A7005
:100D5000224BA3FB0103DB0803EB8303A1EB43015D
:100D600030311D4800F80C10002383541C4A1370C6
:100D70001B4B1A78164B1B789A4225D2842323806A
:100D8000A37813F0040017D1164A126811889288CC
:100D9000914215D023F00103A370A37813F0010F43
:100DA000ABD10F4A1378591C11700B4AD15C0D4B13
:100DB0001868FFF7F7FEDBE70423A37003209CE726
:100DC00043F00103A370E8E700F0E2F890E700BF0A
:100DD0007A1900201F85EB516C190020CDCCCCCCAA
:100DE0007919002020190020F8B50446837863F0B3
:100DF0007F03837003883BB1D72B14D00823A370E3
:100E0000002323800320F8BD194B1A70194B196079
:100E1000194B00221A70184B1A78154B1B789A42FE
:100E2000ECD2D7232380A37813F0040017D1134A00
:100E300012689288BAB123F00103A370A37813F06B
:100E4000010FE0D10C4D2E780A4B1F680B4B186830
:100E5000FFF7D4FEB8552B7801332B70DBE7042362
:100E6000A3700320CFE743F00103A370E6E700BFC0
:100E700078190020741900207B1900201C1900200B
:100E800010B504460AE0074B1868028883889A4226
:100E9000F9D00134FFF786FE00F07AF821780029B6
:100EA000F1D110BD2019002008B578220068FFF7A5
:100EB00073FE08BD10B582B0042000F06FFB24481B
:100EC00000F066FB00F07BFB00F072FB022000F0FC
:100ED0003BFA00F07FF9042000F084F900F08CF96F
:100EE00000F092F900240194009423462822042162
:100EF000022000F06BFA204600F026FA4FF418604A
:100F000000F078FA40F6811000F074FA40F6821092
:100F100000F070FA40F6831000F06CFA40F684108E
:100F200000F068FA4FF4406000F064FA032000F02B
:100F300043FA204600F0E4F9064B074A1360074ADB
:100F40001360074A1360074B1C6002B010BD00BF5E
:100F50008038010000B4C404040000200800002010
:100F60000C00002080190020014B1868704700BF5A
:100F70008019002008B5034A136801331360FFF796
:100F800029FD08BD8019002008B500F041FA08BD10
:100F90000C4B1B6813F0100F00D0704710B543F0D6
:100FA0001003084A1360084B1868FFF727FE014634
:100FB000064B1870064C204600F08FFA204600F0D1
:100FC00082FA10BD88180020201900208519002001
:100FD0000044004010B54FF04023D3F8003413F024
:100FE000200F06D04FF04023D3F81C3413F0200F0D
:100FF0001AD14FF04023D3F8003413F0800F1DD0E6
:101000004FF04023D3F81C3413F0800F16D0124B4E
:10101000186883889BB9114800F05AFA104A13687F
:1010200023F01003136009E00C4800F05AFAC1B233
:101030000C4B19700C4B1868FFF7C6FD10BDFFF77D
:10104000DDFD0146094B1870044C204600F045FABE
:10105000204600F038FAF1E7201900200044004053
:1010600088180020841900201C19002085190020F0
:1010700038B50546262000F0A9FA40F6113000F0F8
:10108000B9F90423002202214FF0904000F0D0F87B
:101090000823002202214FF0904000F0C9F80823F5
:1010A000012211464FF0904000F0E2F8042207219F
:1010B0004FF0904000F0F7F8082207214FF09040E1
:1010C00000F0F1F8114C2946204600F0ABF9082158
:1010D000204600F0CDF90021204600F0D2F90C2185
:1010E000204600F0DAF90021204600F0D0F9002176
:1010F000204600F0D8F9204600F0EAF9204600F03A
:10110000DDF9204600F0D5F938BD00BF00440040AD
:1011100008B54FF46140FFF7ABFF08BD931E222BCB
:1011200010B50C4604D900230B701C46204610BD98
:101130000A2A09D1002807DA2D230B704042012129
:10114000214400F005F8F1E70021F9E7FFF7E6BFD9
:10115000F0B51F4C8BB005460B466E4604F1200CD3
:1011600020686168374603C7083464453E46F7D1B6
:1011700021793971911E2068386022294FF00001D1
:1011800004D919700B4618460BB0F0BD581E8446A2
:10119000B5FBF2F702FB175628366E440C4616F8DC
:1011A000286C0CF8016F2E46B24201F101013D4658
:1011B000EED900225A541919A51AAA42E3DA10F8F6
:1011C000015F0E780670013201F80159F4E700BFA3
:1011D00029160008024A136843F4807313607047AD
:1011E00000200240034A136823F0070318431060ED
:1011F000704700BF00200240024A136843F4806336
:101200001360704700200240024A136843F40073E1
:10121000136070470020024000690840704743692E
:1012200001EA030221EA030141EA024181617047B8
:101230002DE9F0410568C46800264FF0030E43FA1B
:1012400006F7FF070DD577000EFA07FC01FA07F83D
:1012500025EA0C0524EA0C0402FA07F748EA05051A
:101260003C430136102EEAD10560C460BDE8F08130
:10127000012941680CBF19439943F0B54160816869
:101280000024032643FA04F5ED0707D5650006FAA6
:1012900005F721EA070102FA05F529430134102C6C
:1012A000F0D18160F0BDF0B5076A466A00234FF0C7
:1012B0000F0C42FA03F4E50707D59D000CFA05F47C
:1012C00027EA040701FA05F52F430133082BF0D173
:1012D00000234FF00F0C03F1080442FA04F4E40772
:1012E00007D59C000CFA04F526EA050601FA04F479
:1012F00026430133082BEED107624662F0BD0000A1
:10130000032808D8DFE800F0160F08020D4A93689A
:1013100013F00C0FFBD170470A4A9368C3F38103A3
:10132000012BFAD17047074A9368C3F38103022B5C
:10133000FAD17047034A9368C3F38103032BFAD1B0
:10134000704700BF00100240062831D8DFE800F0E7
:10135000040A0F1419212900164A136843F08073F8
:1013600013607047134A136843F48033F8E7114A57
:10137000136843F48073F3E70E4A136843F00103E4
:10138000EEE70C4AD2F8903043F00103C2F89030F7
:101390007047084AD2F8943043F00103C2F8943001
:1013A0007047044AD2F8983043F00103C2F89830ED
:1013B000704700BF00100240034A936823F0030304
:1013C00018439060704700BF0010024010B5039CA6
:1013D0000139640644EA01142043029C40EA445067
:1013E000034343EA0222024B42F08072DA6010BDEE
:1013F00000100240430903F1804303F5043300F079
:101400001F001968012202FA00F0084318607047B3
:10141000034AD2F8003843F00403C2F8003870479A
:10142000000006500E4A904210B54FEA510306D113
:101430000C4A12681A44B2FBF1F2C2600FE00A4C87
:101440000A4AA0421268F5D1B2FBF1F401FB142262
:1014500003EB0222B2FBF1F303EB0423C36010BDE4
:10146000003801400C0000200080004008000020EF
:10147000036808290CBF23F4805343F480530360AE
:101480007047436823F44053194341607047036831
:1014900023F4C063194301607047036823F00C0311
:1014A000194301607047836823F4407319438160D6
:1014B0007047036843F0010303607047036843F01B
:1014C000200303607047036843F0800303607047A4
:1014D000036823F0800303607047C1F30801816251
:1014E0007047406AC0F308007047FEE7704700008D
:1014F00038B51D4A1D4B1E498B4220D31D4A002181
:10150000934221D34FF0E0231B4CD3F8142D1B4DF5
:1015100042F40072C3F8142DD3F8882D42F47002FF
:10152000C3F8882DAC4212D3154C164DAC4212D3E1
:10153000FFF7DEFA144C154DAC4210D338BD52F80B
:10154000040B43F8040BD7E743F8041BD8E754F81F
:10155000043B9847E6E754F8043B9847E6E754F81D
:10156000043B9847E8E700BF501600080000002041
:10157000100000208819002050160008501600089E
:1015800050160008501600085016000850160008A3
:101590004FF0E02320F07F40586170474FF0E02289
:1015A00000F00400136923F0040303431361704740
:1015B0004FF0E022136943F00203136170474FF0CC
:1015C000E022136943F0010313617047054B4209A0
:1015D00003EB820300F01F00012202FA00F0186002
:1015E000704700BF00E100E00A7372632F6D345F43
:1015F0006170702E632C206275696C74206F6E2090
:101600004D61722032332032303232206174203109
:10161000303A34393A32370A0000000054454E4E11
:1016200045535345455445434830313233343536BC
:101630003738396162636465666768696A6B6C6DC7
:101640006E6F707172737475767778797A000000B6
:10165000FA00000000093D0000093D0000093D00BE
:04000005080014F1EA
:00000001FF
