:020000040800F2
:10000000008002201D0F0008190F0008170F0008BC
:10001000170F0008170F0008170F00080000000056
:10002000000000000000000000000000190F0008A0
:10003000190F000800000000190F0008590A0008F5
:10004000170F0008170F0008170F0008170F0008F8
:10005000170F0008170F0008170F0008170F0008E8
:10006000170F0008170F0008170F0008170F0008D8
:10007000170F0008170F0008170F0008170F0008C8
:10008000170F0008170F0008170F0008170F0008B8
:10009000170F0008170F0008170F0008170F0008A8
:1000A000170F0008170F0008170F0008170F000898
:1000B000170F0008170F0008170F0008170F000888
:1000C000170F0008170F0008170F0008170F000878
:1000D000170F0008170F0008B90A0008170F0008CB
:1000E000170F0008170F0008170F0008170F000858
:1000F000170F0008170F0008170F0008170F000848
:10010000170F0008170F0008170F0008170F000837
:10011000170F0008170F0008170F0008170F000827
:10012000170F0008170F0008170F0008170F000817
:10013000170F0008170F0008170F0008170F000807
:10014000170F0008170F0008170F0008170F0008F7
:10015000170F0008170F0008170F0008170F0008E7
:10016000170F0008170F0008170F0008170F0008D7
:10017000170F0008170F0008170F0008170F0008C7
:10018000170F0008170F0008170F0008170F0008B7
:10019000170F0008170F0008170F0008170F0008A7
:1001A000170F0008170F0008170F000808B52021C7
:1001B0004FF0904000F049FD08BD000008B54FF435
:1001C0000051044800F03EFD08B1012008BD0020A8
:1001D000FCE700BF0008004838B50446837863F0A8
:1001E0007F0383700388482B22D04C2B36D093B1E9
:1001F00008238370002303800325284638BD042389
:10020000A3700325F9E7A37843F00103A370A37853
:1002100013F0010FF1D1FFF7C9FFFFF7CFFFB0B126
:1002200000F014FCA0604FF4FA73E36048232380CD
:10023000A57815F00405E2D1E168A06800F0B2F9F4
:100240000028E0D0A37823F00103A370DFE700F0DB
:10025000FDFBA0603E23E3604C232380A57815F0CE
:1002600004050DD1E168A06800F09CF960B1A378A5
:1002700023F00103A370A37813F0010FCBD0BCE7E8
:100280000423A3700325B8E7A37843F00103A37008
:10029000F1E7000038B50446837863F07F0383708C
:1002A0000388002B56D0662B00F2A4805B2BC0F095
:1002B000A1805B3B0B2B00F29D80DFE803F04D67D4
:1002C0009B9B9B9B9B9B9B9B19330423A3700325A8
:1002D00095E043F00103A3704AE00423A3700325D3
:1002E0008DE0A37843F00103A3705EE065232380D3
:1002F000A37813F004056CD1424A126812F0040F7F
:100300006BD123F00103A370A37813F0010F76D112
:100310003C4A136843F0040313603B4B00221A80ED
:1003200066232380A57815F004055AD1374B197838
:10033000354800F091FA022857D9A37823F0010339
:10034000A370A37813F0010F59D12E4A136823F03C
:10035000040313605B232380A37813F00405B4D156
:10036000284A126812F0080FB3D123F00103A370DA
:10037000A37813F0010F42D1224A136843F0080317
:100380001360234B00221A805C232380A57815F08C
:100390000405A2D101221D491D4800F097FA022848
:1003A0009FD9A37823F00103A370A37813F0010F62
:1003B00025D1144A136823F008031360134B1A78ED
:1003C000A2F16103DBB2192B90D8203A0F4B1A70BF
:1003D0008CE70423A370032511E043F00103A3700D
:1003E00092E70423A370032509E0A37843F00103F7
:1003F000A370A6E70823A3700023238003252846C3
:1004000038BD00BF70180020241900200C00002007
:100410000C19002008B5002000F002FD4FF4006028
:1004200000F0FEFC4FF4005300221146054800F096
:1004300015FC2023002201214FF0904000F00EFC1B
:1004400008BD00BF0008004808B5FFF7E3FF0548F6
:1004500000F088FA044800F00BF8044800F008F8AF
:1004600008BD00BF14100008D9010008950200085B
:1004700030B5334B1D781F2D03D80024A6462346E4
:1004800003E000203AE00133DBB21F2B37D803EB47
:1004900043022C4901EBC2025268824206D0002C72
:1004A000F1D1002AEFD19E460124ECE7254A03EB67
:1004B0004301CC0002EBC101002010538870496950
:1004C0000968888020494B5501351D490D700EEB98
:1004D0004E0102EBC102128A5AB91C490A88013244
:1004E00092B20A800EEB4E0E164901EBCE0EAEF81C
:1004F000102003EB4303134800EBC30030BDE4B10D
:10050000104B0EEB4E02D40003EBC20250600021F0
:10051000195391705069006881800B4901F805E01A
:10052000013507490D7009480188013189B2018000
:1005300011820EEB4E0E1046E0E70020DEE700BF12
:100540007D18002050060020500900207A18002055
:10055000002301E00133DBB20E4A12789A4217D928
:100560009C460D4AD25CFD2AF4D802EB42020B49AC
:1005700001EBC20252688242ECD1074BFE2203F823
:100580000C20074A136843F00103136001207047F1
:10059000002070477D1800205009002050060020E0
:1005A0007018002038B504460D4600F04FFA031BC2
:1005B000A04200D2013BAB4201D9012038BD00204E
:1005C000FCE7000038B5134B1D78002403E0013D23
:1005D000EDB20134E4B2E5B10123A3400E4909684C
:1005E0000B42F6D004EB44018B000C4919448B6894
:1005F000013B8B60002BEAD1084904EB44008300E7
:100600000B445868986004EB44029300CB58984719
:10061000DDE738BD78180020741800209005002010
:1006200010B5002423E004EB4403DA00214B13440B
:1006300000215960204AFF20105504EB4402D000ED
:100640001E4A024451601E4A02EBC400586104EB8A
:10065000440399001B4B0B4442F83430C4EB0412A2
:10066000D3001949194400F091F90134E4B21F2C68
:10067000D9D90023154A13600F2B08D803EB430187
:100680008A001349002088500133DBB2F4E70023CD
:10069000104A1370104A1370104A1370202000F093
:1006A000B5F800F0E3F900F077F900F0B5F8FFF7DE
:1006B000CBFE10BD50060020500900201000002085
:1006C00090040020100300207009002074180020FE
:1006D000900500207D1800207C180020781800204C
:1006E00070B5FFF79DFF234B00221A801CE00134F8
:1006F000E4B2B44213D2204B1D5D05EB45031F4805
:1007000000EBC300436898470328F0D105EB45058B
:100710001A4B03EBC5056868FFF71AFFE7E7184BAC
:100720001B6813F0010F03D1164B1E780024E0E77D
:10073000144A1178104A525CFE2A03D099B101394B
:10074000C9B2F7E74A1CD2B205E0541E0A48855CDC
:1007500005550132D2B2B242F7D3013E064AFF201C
:100760009055F6B2EAE7074A167023F00103044AEF
:100770001360D9E77A1800205009002050060020A5
:10078000701800207D1800200023438083800280A1
:10079000816070478388B0F800C063450BD24288FF
:1007A000134493FBFCF20CFB123382689BB2D154CE
:1007B000838801338380704743888288134402888A
:1007C00093FBF2FC02FB1C3382689BB2D1548388FA
:1007D0000288934202D001338380704743880133FB
:1007E00093FBF2F102FB11334380704703468168AB
:1007F0004288885C0132198892FBF1FC01FB1C22C3
:100800005A809A88013A9A8070470000014B18601C
:10081000704700BF8018002010B5094C094B2360B9
:1008200009480A4B186040220949FFF7ADFF4022F2
:1008300008492068FFF7A8FF00F0DCF910BD00BFF1
:10084000041900203C190020481900200819002034
:10085000C41800208418002010B50446837843F0A3
:100860008003837002883AB1542A09D00823A37008
:1008700000232380032010BD124A117054220280ED
:1008800013F0040015D1104A126811889288914221
:1008900013D023F00103A370A37813F0010FEAD162
:1008A000084B1978084B1868FFF774FF00F0E2F85E
:1008B000DCE70423A3700320DDE743F00103A3700A
:1008C000EAE700BF5A19002008190020F8B50446CD
:1008D000837863F07F03837003883BB1D72B14D0F8
:1008E0000823A370002323800320F8BD194B1A703E
:1008F000194B1960194B00221A70184B1A78154BB6
:100900001B789A42ECD2D7232380A37813F00400FB
:1009100017D1134A12689288BAB123F00103A37069
:10092000A37813F0010FE0D10C4D2E780A4B1F680D
:100930000B4B1868FFF75AFFB8552B7801332B7013
:10094000DBE70423A3700320CFE743F00103A37088
:10095000E6E700BF5819002054190020591900205B
:100960000419002010B504460AE0074B18680288F5
:1009700083889A42F9D00134FFF70CFF00F07AF82F
:1009800021780029F1D110BD0819002008B578227E
:100990000068FFF7F9FE08BD10B582B0042000F032
:1009A00013FB244800F00AFB00F01FFB00F016FBCD
:1009B000022000F0DFF900F023F9042000F028F90C
:1009C00000F030F900F036F9002401940094234639
:1009D00028220421022000F00FFA204600F0CAF974
:1009E0004FF4186000F01CFA40F6811000F018FA7D
:1009F00040F6821000F014FA40F6831000F010FA6E
:100A000040F6841000F00CFA4FF4406000F008FA51
:100A1000032000F0E7F9204600F088F9064B074A6A
:100A20001360074A1360074A1360074B1C6002B04B
:100A300010BD00BF8038010000B4C40400000020D5
:100A400004000020080000205C190020014B1868F9
:100A5000704700BF5C19002008B5034A13680133D2
:100A60001360FFF7AFFD08BD5C19002008B500F06A
:100A7000E5F908BD0C4B1B6813F0100F00D0704750
:100A800010B543F01003084A1360084B1868FFF7CD
:100A9000ADFE0146064B1870064C204600F033FAB6
:100AA000204600F026FA10BD70180020081900201A
:100AB000611900200044004010B54FF04023D3F8E6
:100AC000003413F0200F06D04FF04023D3F81C342D
:100AD00013F0200F1AD14FF04023D3F8003413F055
:100AE000800F1DD04FF04023D3F81C3413F0800F3B
:100AF00016D0124B186883889BB9114800F0FEF994
:100B0000104A136823F01003136009E00C4800F04A
:100B1000FEF9C1B20C4B19700C4B1868FFF74CFE74
:100B200010BDFFF763FE0146094B1870044C2046C8
:100B300000F0E9F9204600F0DCF9F1E7081900209F
:100B400000440040701800206019002004190020A3
:100B50006119002038B50546262000F04DFA40F610
:100B6000113000F05DF90423002202214FF0904083
:100B700000F074F80823002202214FF0904000F0AA
:100B80006DF80823012211464FF0904000F086F8DE
:100B9000042207214FF0904000F09BF80822072123
:100BA0004FF0904000F095F8114C2946204600F097
:100BB0004FF90821204600F071F90021204600F08D
:100BC00076F90C21204600F07EF90021204600F045
:100BD00074F90021204600F07CF9204600F08EF9DF
:100BE000204600F081F9204600F079F938BD00BFB9
:100BF0000044004008B54FF46140FFF7ABFF08BD6B
:100C0000024A136843F48073136070470020024067
:100C1000034A136823F0070318431060704700BFAE
:100C200000200240024A136843F480631360704757
:100C300000200240024A136843F4007313607047B7
:100C400000200240006908407047436901EA03023E
:100C500021EA030141EA0241816170472DE9F04137
:100C60000568C46800264FF0030E43FA06F7FF0735
:100C70000DD577000EFA07FC01FA07F825EA0C05F6
:100C800024EA0C0402FA07F748EA05053C4301365A
:100C9000102EEAD10560C460BDE8F08101294168E9
:100CA0000CBF19439943F0B54160816800240326C5
:100CB00043FA04F5ED0707D5650006FA05F721EAC2
:100CC000070102FA05F529430134102CF0D18160A7
:100CD000F0BDF0B5076A466A00234FF00F0C42FAE8
:100CE00003F4E50707D59D000CFA05F427EA04078D
:100CF00001FA05F52F430133082BF0D100234FF003
:100D00000F0C03F1080442FA04F4E40707D59C0031
:100D10000CFA04F526EA050601FA04F42643013329
:100D2000082BEED107624662F0BD0000032808D808
:100D3000DFE800F0160F08020D4A936813F00C0F5D
:100D4000FBD170470A4A9368C3F38103012BFAD1A0
:100D50007047074A9368C3F38103022BFAD17047A7
:100D6000034A9368C3F38103032BFAD1704700BF92
:100D700000100240062831D8DFE800F0040A0F1402
:100D800019212900164A136843F0807313607047D5
:100D9000134A136843F48033F8E7114A136843F4A5
:100DA0008073F3E70E4A136843F00103EEE70C4A41
:100DB000D2F8903043F00103C2F890307047084AEF
:100DC000D2F8943043F00103C2F894307047044ADB
:100DD000D2F8983043F00103C2F89830704700BF52
:100DE00000100240034A936823F003031843906005
:100DF000704700BF0010024010B5039C0139640623
:100E000044EA01142043029C40EA4450034343EA6D
:100E10000222024B42F08072DA6010BD00100240E4
:100E2000430903F1804303F5043300F01F00196800
:100E3000012202FA00F0084318607047034AD2F812
:100E4000003843F00403C2F8003870470000065031
:100E50000E4A904210B54FEA510306D10C4A12686F
:100E60001A44B2FBF1F2C2600FE00A4C0A4AA042F7
:100E70001268F5D1B2FBF1F401FB142203EB02225C
:100E8000B2FBF1F303EB0423C36010BD0038014053
:100E900008000020008000400400002003680829AA
:100EA0000CBF23F4805343F48053036070474368BE
:100EB00023F44053194341607047036823F4C0632F
:100EC000194301607047036823F00C031943016064
:100ED0007047836823F44073194381607047036847
:100EE00043F0010303607047036843F0200303608D
:100EF0007047036843F0800303607047036823F082
:100F0000800303607047C1F3080181627047406A43
:100F1000C0F308007047FEE77047000038B51D4A6F
:100F20001D4B1E498B4220D31D4A0021934221D3E1
:100F30004FF0E0231B4CD3F8142D1B4D42F40072EC
:100F4000C3F8142DD3F8882D42F47002C3F8882D0D
:100F5000AC4212D3154C164DAC4212D3FFF7C0FB76
:100F6000144C154DAC4210D338BD52F8040B43F865
:100F7000040BD7E743F8041BD8E754F8043B984721
:100F8000E6E754F8043B9847E6E754F8043B9847F3
:100F9000E8E700BF50100008000000200C0000200F
:100FA000641900205010000850100008501000086C
:100FB0005010000850100008501000084FF0E023B7
:100FC00020F07F40586170474FF0E02200F00400AD
:100FD000136923F004030343136170474FF0E022C9
:100FE000136943F00203136170474FF0E022136965
:100FF00043F0010313617047054B420903EB820381
:1010000000F01F00012202FA00F01860704700BFD4
:1010100000E100E00A7372632F6D345F74696D65DF
:10102000725F756172745F6170702E632C206275DF
:10103000696C74206F6E204D617220323220323024
:1010400032322061742031333A30303A34320A007F
:0C10500000093D0000093D0000093D00C2
:0400000508000F1DC3
:00000001FF
