:020000040800F2
:1000000000800220ED150008E9150008E71500083A
:10001000E7150008E7150008E715000800000000D4
:10002000000000000000000000000000E9150008CA
:10003000E915000800000000E9150008711000082B
:10004000E7150008E7150008E7150008E7150008A0
:10005000E7150008E7150008E7150008E715000890
:10006000E7150008E7150008E7150008E715000880
:10007000E7150008E7150008E7150008E715000870
:10008000E7150008E7150008E7150008E715000860
:10009000E7150008E7150008E7150008E715000850
:1000A000E7150008E7150008E7150008E715000840
:1000B000E7150008E7150008E7150008E715000830
:1000C000E7150008E7150008E7150008E715000820
:1000D000E7150008E7150008D1100008E71500082B
:1000E000E7150008E7150008E7150008E715000800
:1000F000E7150008E7150008E7150008E7150008F0
:10010000E7150008E7150008E7150008E7150008DF
:10011000E7150008E7150008E7150008E7150008CF
:10012000E7150008E7150008E7150008E7150008BF
:10013000E7150008E7150008E7150008E7150008AF
:10014000E7150008E7150008E7150008E71500089F
:10015000E7150008E7150008E7150008E71500088F
:10016000E7150008E7150008E7150008E71500087F
:10017000E7150008E7150008E7150008E71500086F
:10018000E7150008E7150008E7150008E71500085F
:10019000E7150008E7150008E7150008E71500084F
:1001A000E7150008E7150008E715000808B5202145
:1001B0004FF0904001F0B1F808BD000008B54FF4D1
:1001C0000051044801F0A6F808B1012008BD002044
:1001D000FCE700BF0008004838B504462E4BFA2261
:1001E0001A80837863F07F03837003884B2B22D0BF
:1001F0004F2B36D093B1082383700023038003254F
:10020000284638BD0423A3700325F9E7A37843F0FB
:100210000103A370A37813F0010FF1D1FFF7C6FF1C
:10022000FFF7CCFFB0B100F01DFFA0601A4B1B8898
:10023000E3604B232380A57815F00405E2D1E16843
:10024000A06800F035FC0028E0D0A37823F001037B
:10025000A370DFE700F006FFA0603E23E3604F23BA
:100260002380A57815F004050DD1E168A06800F0A1
:100270001FFC60B1A37823F00103A370A37813F0EF
:10028000010FCBD0BCE70423A3700325B8E7A37804
:1002900043F00103A370F1E71A00002008B5FFF74F
:1002A0008DFF08B9012008BD0020FCE770B50446A9
:1002B000837863F07F0383700388E72B00F2268343
:1002C000992B54D3993B4E2B00F22083DFE813F097
:1002D00012012D011E031E031E031E031E034F01E8
:1002E0001E031E031E031E031E031E031E031E0306
:1002F0001E03AF01CC01E6011E031E031E031E03F5
:100300001E031E031E031E031E031E031E031E03E5
:100310001E031E031E031E031E031E031E031E03D5
:100320001E031E031E031E031E031E031E031E03C5
:100330001E031E031E031E031E031E031E031E03B5
:100340001E031E031E031E031E031E031E032402A0
:1003500041021E031E031E031E031E031E031E0373
:100360001E031E031E031E031E0370028C02692B54
:1003700049D06A2B42D1A57815F0040567D1012236
:100380009849994800F0AEFD022864D9A37823F07B
:100390000103A370A37813F0010F40F0BC82934ACD
:1003A000136823F008031360914B1B780C2B02D9C0
:1003B0008F4B00221A708F4B1B780C2B02D98D4B60
:1003C00000221A70874B1A78A2F16103DBB2192B55
:1003D00046D9844B1A78212A75D0874B1B78032B7A
:1003E00076D0032B40F07B81532A40F07881834BF9
:1003F00001221A70824B00221A8070E1002B40F01B
:10040000858269232380A37813F0040517D1774AE6
:10041000126812F0080F16D123F00103A370A3781D
:1004200013F0010F40F07782704A136843F008031D
:1004300013606D4B00221A806A2323809BE70423FC
:10044000A370032567E243F00103A370E7E70423E9
:10045000A37003255FE2A37843F00103A37099E73B
:10046000203A604B1A70FFF7A9FEB0B15D4E3278AA
:10047000413A5F4D2978634B5B5C413B1A446248CB
:1004800080FB0230D317C3EBE0031A2000FB1323D9
:1004900041333370013129709BE7564D2978594B10
:1004A0005B5C504E3278D21A1A32574880FB0230C9
:1004B000D317C3EBE0031A2000FB1323413333703F
:1004C0000131297085E74C490B7801330B7084E7C3
:1004D0004C2A86D1FFF772FE002800F09F804B4B1C
:1004E0001888400080B218800A22494900F0ACFE0A
:1004F00099232380A37813F0040558D13B4A12684E
:1005000012F0040F57D123F00103A370A37813F066
:10051000010F40F00082354A136843F00403136072
:100520003C4B00221A809A232380A57815F00405FD
:1005300045D14C21374800F015FC022843D9A37857
:1005400023F00103A370A37813F0010F40F0E381BF
:10055000314B00221A70304B1B782D4AD35C002B94
:1005600000F0B7802B4B00221A80A0232380A578AF
:1005700015F004052CD1284B1B78254AD15C254861
:1005800000F0F0FB022827D9A37823F00103A37021
:10059000A37813F0010F40F0BE81144A136823F0D2
:1005A000040313601C4A137801331370D3E7042348
:1005B000A3700325AFE143F00103A370A6E7042372
:1005C000A3700325A7E1A37843F00103A370BAE762
:1005D0000423A37003259EE1A37843F00103A370D5
:1005E000D6E700BF21000020201900208418002039
:1005F0001E0000201D00002020000020160000200A
:1006000018000020201700084FECC44E1A000020EC
:100610000C000020381900201C000020FFF73EFECF
:10062000002856D0AE4B7C221A70AA232380A378D0
:1006300013F0040540F0F280AA4A126812F0040F89
:1006400040F0F08023F00103A370A37813F0010FB2
:1006500040F06181A34A136843F004031360A24B86
:1006600000221A80AB232380A57815F0040540F002
:10067000DD804C219C4800F075FB022840F2DA80B6
:10068000A37823F00103A370A37813F0010F40F0C7
:100690004281954B00221A80AC232380A57815F067
:1006A000040540F0CC808E4B19788F4800F094FB05
:1006B000022840F2C880A37823F00103A370A37836
:1006C00013F0010F40F02781864A136823F00403DA
:1006D0001360864B01221A70854B00221A70854BDD
:1006E0001B78002B5DD0844A13780133DBB2137082
:1006F000012B00F0AD80022B00F0B780032B00F03F
:10070000C180042B4AD1764B1B787C4A11880B445C
:10071000303B1380D8232380A37813F0040540F0E6
:10072000BC80704A126812F0040F40F0BA8023F0C7
:100730000103A370A37813F0010F40F0EC80694A25
:10074000136843F004031360674B00221A80D92317
:100750002380A57815F0040540F0A780674B197831
:10076000614800F039FB022840F2A380A37823F00F
:100770000103A370A37813F0010F40F0CC80594A15
:10078000136823F0040313605C4B1B885B085C4A0E
:1007900013800023574A1370574A1370544B00229A
:1007A0001A70524B1B78002B40F0AC80E62323805C
:1007B000A37813F0040540F081804A4A126812F0D1
:1007C000040F7FD123F00103A370A37813F0010F6E
:1007D00040F0A180434A136843F004031360424B86
:1007E00000221A80E7232380A57815F004056DD137
:1007F0003B4B19783C4800F0B5FA02286AD9A37837
:1008000023F00103A370A37813F0010F40F083805D
:10081000344A136823F004031360F2E50423A37041
:10082000032578E043F00103A3700EE70423A370CF
:10083000032570E0A37843F00103A37024E70423A9
:10084000A370032567E0A37843F00103A37036E7A4
:10085000234B1B78303BC3EB431203EB8203274946
:100860000A8802EBC3030B8098E71D4B1B78303BD3
:1008700003EB830303EB830320490A8802EB830322
:100880000B808BE7164B1B78303B03EB83031B4934
:100890000A8802EB43030B8080E70423A37003253F
:1008A00039E043F00103A37044E70423A370032558
:1008B00031E0A37843F00103A3705BE70423A37046
:1008C000032528E043F00103A3707EE70423A3700F
:1008D000032520E0A37843F00103A37093E700BF52
:1008E0002100002084180020381900201700002063
:1008F00020000020160000201F000020180000200B
:100900001A000020054B00221A707AE50823A37014
:10091000002323800325284670BD00BF1700002058
:1009200008B5002000F0E4FD4FF4006000F0E0FDA9
:100930004FF4005300221146054800F0F7FC202335
:10094000002201214FF0904000F0F0FC08BD00BFF4
:100950000008004808B5FFF7E3FF054800F00EFB6C
:10096000044800F00BF8044800F008F808BD00BF88
:10097000E4160008D9010008AD02000830B5334B79
:100980001D781F2D03D80024A646234603E000202F
:100990003AE00133DBB21F2B37D803EB43022C497B
:1009A00001EBC2025268824206D0002CF1D1002A2B
:1009B000EFD19E460124ECE7254A03EB4301CC002E
:1009C00002EBC101002010538870496909688880D2
:1009D00020494B5501351D490D700EEB4E0102EBC0
:1009E000C102128A5AB91C490A88013292B20A809D
:1009F0000EEB4E0E164901EBCE0EAEF8102003EBB7
:100A00004303134800EBC30030BDE4B1104B0EEBC1
:100A10004E02D40003EBC2025060002119539170C2
:100A20005069006881800B4901F805E001350749EC
:100A30000D7009480188013189B2018011820EEBE5
:100A40004E0E1046E0E70020DEE700BF91180020C0
:100A500064060020640900208E180020002301E0B5
:100A60000133DBB20E4A12789A4217D99C460D4ADE
:100A7000D25CFD2AF4D802EB42020B4901EBC20220
:100A800052688242ECD1074BFE2203F80C20074A41
:100A9000136843F001031360012070470020704782
:100AA00091180020640900206406002084180020AA
:100AB00038B504460D4600F0D5FA031BA04200D21B
:100AC000013BAB4201D9012038BD0020FCE700000A
:100AD00038B5134B1D78002403E0013DEDB201341D
:100AE000E4B2E5B10123A3400E4909680B42F6D0F8
:100AF00004EB44018B000C4919448B68013B8B606B
:100B0000002BEAD1084904EB440083000B445868E9
:100B1000986004EB44029300CB589847DDE738BD5A
:100B20008C18002088180020A405002010B500248F
:100B300023E004EB4403DA00214B13440021596005
:100B4000204AFF20105504EB4402D0001E4A024404
:100B500051601E4A02EBC400586104EB4403990043
:100B60001B4B0B4442F83430C4EB0412D300194938
:100B7000194400F017FA0134E4B21F2CD9D900232C
:100B8000154A13600F2B08D803EB43018A00134961
:100B9000002088500133DBB2F4E70023104A1370C1
:100BA000104A1370104A1370202000F0B5F800F0BE
:100BB00069FA00F0FDF900F0B5F8FFF7CBFE10BDC3
:100BC000640600206409002024000020A404002002
:100BD000240300208409002088180020A405002098
:100BE00091180020901800208C18002070B5FFF795
:100BF0009DFF234B00221A801CE00134E4B2B44272
:100C000013D2204B1D5D05EB45031F4800EBC300CD
:100C1000436898470328F0D105EB45051A4B03EBD1
:100C2000C5056868FFF71AFFE7E7184B1B6813F064
:100C3000010F03D1164B1E780024E0E7144A117807
:100C4000104A525CFE2A03D099B10139C9B2F7E7C4
:100C50004A1CD2B205E0541E0A48855C0555013293
:100C6000D2B2B242F7D3013E064AFF209055F6B207
:100C7000EAE7074A167023F00103044A1360D9E734
:100C80008E180020640900206406002084180020CB
:100C90009118002000234380838002808160704788
:100CA0008388B0F800C063450BD24288134493FB9D
:100CB000FCF20CFB123382689BB2D154838801335F
:100CC00083807047438882881344028893FBF2FC38
:100CD00002FB1C3382689BB2D15483880288934202
:100CE00002D00133838070474388013393FBF2F1D4
:100CF00002FB113343807047034681684288885C59
:100D00000132198892FBF1FC01FB1C225A809A885F
:100D1000013A9A8070470000014B1860704700BF8D
:100D20009418002010B5094C094B236009480A4B60
:100D3000186040220949FFF7ADFF402208492068AA
:100D4000FFF7A8FF00F062FA10BD00BF18190020DD
:100D5000501900205C1900201C190020D818002010
:100D60009818002010B50446837843F08003837000
:100D700002883AB1542A09D00823A37000232380A3
:100D8000032010BD124A11705422028013F0040097
:100D900015D1104A126811889288914213D023F01D
:100DA0000103A370A37813F0010FEAD1084B19785F
:100DB000084B1868FFF774FF00F068F9DCE70423BC
:100DC000A3700320DDE743F00103A370EAE700BF4F
:100DD000781900201C19002010B50446837863F0B0
:100DE0007F03837003883BB1842B47D00823A37013
:100DF00000232380032010BD344B00221A70632986
:100E000008D901221A70324BA3FB01235B0930334E
:100E1000304A1370092912D92C4B1A78501C1870BB
:100E20002B4BA3FB01035B09642000FB1313DBB214
:100E30002948A0FB0303DB08303326488354234BA7
:100E400093F800C00CF10102D2B21A70224BA3FB3E
:100E50000103DB0803EB8303A1EB430130311D48A1
:100E600000F80C10002383541C4A13701B4B1A7893
:100E7000164B1B789A4225D284232380A37813F043
:100E8000040017D1164A126811889288914215D031
:100E900023F00103A370A37813F0010FABD10F4A25
:100EA0001378591C11700B4AD15C0D4B1868FFF771
:100EB000F7FEDBE70423A37003209CE743F0010364
:100EC000A370E8E700F0E2F890E700BF7619002091
:100ED0001F85EB5168190020CDCCCCCC75190020B2
:100EE0001C190020F8B50446837863F07F038370F3
:100EF00003883BB1D72B14D00823A3700023238091
:100F00000320F8BD194B1A70194B1960194B0022B8
:100F10001A70184B1A78154B1B789A42ECD2D723CB
:100F20002380A37813F0040017D1134A1268928823
:100F3000BAB123F00103A370A37813F0010FE0D13D
:100F40000C4D2E780A4B1F680B4B1868FFF7D4FE28
:100F5000B8552B7801332B70DBE70423A3700320F3
:100F6000CFE743F00103A370E6E700BF7419002048
:100F700070190020771900201819002010B50446B8
:100F80000AE0074B1868028883889A42F9D0013436
:100F9000FFF786FE00F07AF821780029F1D110BD24
:100FA0001C19002008B578220068FFF773FE08BD01
:100FB00010B582B0042000F06FFB244800F066FBFF
:100FC00000F07BFB00F072FB022000F03BFA00F027
:100FD0007FF9042000F084F900F08CF900F092F918
:100FE000002401940094234628220421022000F0CA
:100FF0006BFA204600F026FA4FF4186000F078FAF9
:1010000040F6811000F074FA40F6821000F070FA99
:1010100040F6831000F06CFA40F6841000F068FA95
:101020004FF4406000F064FA032000F043FA2046D9
:1010300000F0E4F9064B074A1360074A1360074AB9
:101040001360074B1C6002B010BD00BF8038010068
:1010500000B4C404000000200400002008000020A8
:101060007C190020014B1868704700BF7C190020D4
:1010700008B5034A136801331360FFF729FD08BD63
:101080007C19002008B500F041FA08BD0C4B1B6824
:1010900013F0100F00D0704710B543F01003084A4A
:1010A0001360084B1868FFF727FE0146064B1870BF
:1010B000064C204600F08FFA204600F082FA10BD60
:1010C000841800201C1900208119002000440040D1
:1010D00010B54FF04023D3F8003413F0200F06D0A2
:1010E0004FF04023D3F81C3413F0200F1AD14FF0E7
:1010F0004023D3F8003413F0800F1DD04FF040236D
:10110000D3F81C3413F0800F16D0124B1868838864
:101110009BB9114800F05AFA104A136823F01003E3
:10112000136009E00C4800F05AFAC1B20C4B197078
:101130000C4B1868FFF7C6FD10BDFFF7DDFD01463B
:10114000094B1870044C204600F045FA204600F088
:1011500038FAF1E71C1900200044004084180020F0
:1011600080190020181900208119002038B5054683
:10117000262000F0A9FA40F6113000F0B9F9042356
:10118000002202214FF0904000F0D0F80823002206
:1011900002214FF0904000F0C9F8082301221146C7
:1011A0004FF0904000F0E2F8042207214FF0904009
:1011B00000F0F7F8082207214FF0904000F0F1F816
:1011C000114C2946204600F0ABF90821204600F0DA
:1011D000CDF90021204600F0D2F90C21204600F084
:1011E000DAF90021204600F0D0F90021204600F075
:1011F000D8F9204600F0EAF9204600F0DDF9204653
:1012000000F0D5F938BD00BF0044004008B54FF4E8
:101210006140FFF7ABFF08BD931E222B10B50C46B3
:1012200004D900230B701C46204610BD0A2A09D1A0
:10123000002807DA2D230B7040420121214400F0E1
:1012400005F8F1E70021F9E7FFF7E6BFF0B51F4C1D
:101250008BB005460B466E4604F1200C2068616891
:10126000374603C7083464453E46F7D121793971C2
:10127000911E2068386022294FF0000104D91970AE
:101280000B4618460BB0F0BD581E8446B5FBF2F76E
:1012900002FB175628366E440C4616F8286C0CF8DC
:1012A000016F2E46B24201F101013D46EED9002206
:1012B0005A541919A51AAA42E3DA10F8015F0E78F8
:1012C0000670013201F80159F4E700BF2D1700083C
:1012D000024A136843F48073136070470020024091
:1012E000034A136823F0070318431060704700BFD8
:1012F00000200240024A136843F480631360704781
:1013000000200240024A136843F4007313607047E0
:1013100000200240006908407047436901EA030267
:1013200021EA030141EA0241816170472DE9F04160
:101330000568C46800264FF0030E43FA06F7FF075E
:101340000DD577000EFA07FC01FA07F825EA0C051F
:1013500024EA0C0402FA07F748EA05053C43013683
:10136000102EEAD10560C460BDE8F0810129416812
:101370000CBF19439943F0B54160816800240326EE
:1013800043FA04F5ED0707D5650006FA05F721EAEB
:10139000070102FA05F529430134102CF0D18160D0
:1013A000F0BDF0B5076A466A00234FF00F0C42FA11
:1013B00003F4E50707D59D000CFA05F427EA0407B6
:1013C00001FA05F52F430133082BF0D100234FF02C
:1013D0000F0C03F1080442FA04F4E40707D59C005B
:1013E0000CFA04F526EA050601FA04F42643013353
:1013F000082BEED107624662F0BD0000032808D832
:10140000DFE800F0160F08020D4A936813F00C0F86
:10141000FBD170470A4A9368C3F38103012BFAD1C9
:101420007047074A9368C3F38103022BFAD17047D0
:10143000034A9368C3F38103032BFAD1704700BFBB
:1014400000100240062831D8DFE800F0040A0F142B
:1014500019212900164A136843F0807313607047FE
:10146000134A136843F48033F8E7114A136843F4CE
:101470008073F3E70E4A136843F00103EEE70C4A6A
:10148000D2F8903043F00103C2F890307047084A18
:10149000D2F8943043F00103C2F894307047044A04
:1014A000D2F8983043F00103C2F89830704700BF7B
:1014B00000100240034A936823F00303184390602E
:1014C000704700BF0010024010B5039C013964064C
:1014D00044EA01142043029C40EA4450034343EA97
:1014E0000222024B42F08072DA6010BD001002400E
:1014F000430903F1804303F5043300F01F0019682A
:10150000012202FA00F0084318607047034AD2F83B
:10151000003843F00403C2F800387047000006505A
:101520000E4A904210B54FEA510306D10C4A126898
:101530001A44B2FBF1F2C2600FE00A4C0A4AA04220
:101540001268F5D1B2FBF1F401FB142203EB022285
:10155000B2FBF1F303EB0423C36010BD003801407C
:1015600008000020008000400400002003680829D3
:101570000CBF23F4805343F48053036070474368E7
:1015800023F44053194341607047036823F4C06358
:10159000194301607047036823F00C03194301608D
:1015A0007047836823F44073194381607047036870
:1015B00043F0010303607047036843F020030360B6
:1015C0007047036843F0800303607047036823F0AB
:1015D000800303607047C1F3080181627047406A6D
:1015E000C0F308007047FEE77047000038B51D4A99
:1015F0001D4B1E498B4220D31D4A0021934221D30B
:101600004FF0E0231B4CD3F8142D1B4D42F4007215
:10161000C3F8142DD3F8882D42F47002C3F8882D36
:10162000AC4212D3154C164DAC4212D3FFF7DEFA82
:10163000144C154DAC4210D338BD52F8040B43F88E
:10164000040BD7E743F8041BD8E754F8043B98474A
:10165000E6E754F8043B9847E6E754F8043B98471C
:10166000E8E700BF54170008000000200C0000202D
:101670008419002054170008541700085417000854
:101680005417000854170008541700084FF0E023BF
:1016900020F07F40586170474FF0E02200F00400D6
:1016A000136923F004030343136170474FF0E022F2
:1016B000136943F00203136170474FF0E02213698E
:1016C00043F0010313617047054B420903EB8203AA
:1016D00000F01F00012202FA00F01860704700BFFE
:1016E00000E100E00A7372632F6D345F74696D6509
:1016F000725F756172745F6170702E632C20627509
:10170000696C74206F6E204D61722032322032304D
:1017100032322061742032313A32343A32350A00A2
:1017200054454E4E45535345455445434830313258
:1017300033343536373839616263646566676869A2
:101740006A6B6C6D6E6F7071727374757677787981
:041750007A0000001B
:0C17540000093D0000093D0000093D00B7
:04000005080015EDED
:00000001FF
